:1000000000000420BD020000E5020000E70200003D
:10001000E9020000EB020000ED0200000000000019
:10002000000000000000000000000000EF020000DF
:10003000F102000000000000F3020000F5020000E1
:10004000CD3C0000050A0000F9050000F7020000A1
:10005000F7020000F702000011160000F70200008E
:10006000F7020000F7020000F7020000F7020000AC
:10007000F7020000F7020000F7020000F70200009C
:10008000F702000029100000F7020000F70200004C
:10009000B10D0000C9100000F7020000F7020000D7
:1000A000F7020000F7020000F7020000F70200006C
:1000B000F7020000F702000000000000000000004E
:1000C000F7020000F7020000F7020000F70200004C
:1000D000F7020000F7020000F7020000F12900001B
:1000E000F7020000F7020000F70200000000000025
:1000F00000000000F702000000000000F70200000E
:1001000000000000000000000000000000000000EF
:1001100000000000000000000000000000000000DF
:1001200000000000000000000000000000000000CF
:1001300000000000000000000000000000000000BF
:1001400000000000000000000000000000000000AF
:10015000000000000000000000000000000000009F
:10016000000000000000000000000000000000008F
:10017000000000000000000000000000000000007F
:10018000000000000000000000000000000000006F
:10019000000000000000000000000000000000005F
:1001A000000000000000000000000000000000004F
:1001B000000000000000000000000000000000003F
:1001C000000000000000000000000000000000002F
:1001D000000000000000000000000000000000001F
:1001E000000000000000000000000000000000000F
:1001F00000000000000000000000000000000000FF
:1002000010B5054C237833B9044B13B10448AFF350
:1002100000800123237010BD980000200000000022
:10022000A07D000008B5034B1BB103490348AFF3A1
:10023000008008BD000000009C000020A07D0000A0
:10024000A3F5803A704700BF174B002B08BF134B34
:100250009D46FFF7F5FF00218B460F461348144AD1
:10026000121A06F02BFF0E4B002B00D098470D4BB7
:10027000002B00D098470020002104000D000D48FD
:10028000002802D00C48AFF3008006F0E5FE200005
:10029000290006F0D5FC06F0CBFE00BF00000800E8
:1002A0000000000000000000000004209800002072
:1002B000880C002000000000000000000649074AEA
:1002C000074B9B1A03DD043BC858D050FBDC06F0FB
:1002D00081FDFFF7B9FF0000AC7D000000000020A9
:1002E00098000020FEE7FEE7FEE7FEE7FEE7FEE7F8
:1002F000FEE7FEE7FEE7FEE7064B1A5C1F2A86BF15
:10030000054902F01F024FF0A04101239340C1F8BC
:100310000C357047E87A000000030050064B1A5C69
:100320001F2A86BF054902F01F024FF0A04101239A
:100330009340C1F808357047E87A00000003005088
:100340000A4B185C1F288ABF09494FF0A04100F0F2
:100350001F00D1F804350122824022EA0300134035
:10036000C1F80805C1F80C35704700BFE87A0000F5
:1003700000030050C20710B40FD483070AD54FF012
:10038000A0430C22C3F82C27C3F83027C3F86027FA
:10039000C3F864275DF8044B70474FF0A043032275
:1003A0004FF40051C3F834274FF48044C3F8382782
:1003B000C3F83C27C3F84027C3F808154FF4803230
:1003C0004FF40041C3F80845C3F80815C3F80825E1
:1003D000D3E700BF00B585B00346002101AA44F26F
:1003E0000100CDE90111039300F004F805B05DF8B8
:1003F00004FB00BF72B6094BD3F8F030DB0700D521
:1004000000BEBFF34F8F0549054BCA6802F4E06296
:100410001343CB60BFF34F8F00BFFDE700ED00E05B
:100420000400FA0572B6024A13680133136070477C
:10043000B4000020034A1368013B136003B962B69D
:10044000704700BFB4000020034653E8000F0A467F
:1004500043E8002C9CF0000FF7D17047034653E8A7
:10046000002F02EB010043E8000C9CF0000FF6D1D6
:10047000704700BF034653E8002F8A422CBF501A32
:10048000104643E8000C9CF0000FF4D1704700BF09
:100490000346002253E8000F00EA020143E8001C73
:1004A0009CF0000FF6D1704799B110B4B2FBF3F491
:1004B00003FB1424A4B244B9C0E90014846082810F
:1004C000C38120465DF8044B704709205DF8044B5A
:1004D00070470E20704700BF10B483B050E8013F52
:1004E0001FFA83FCC489A4448489A44528BFACEBCB
:1004F000040C0489A44502BFBFF32F8F002207E03C
:10050000CCEA030C40E801C4002CE7D14FF0010213
:100510008DF803200193019C9DF803200C6032B1FB
:10052000006810FA84F003B05DF8044B704702F0E5
:10053000FF03184603B05DF8044B70470A884B88E8
:100540009A4201D00020704750E8012FC2EA0242CF
:1005500040E80123002BF7D10120704710B483B08D
:1005600050E8023F1FFAA3FCC488A44502BFBFF3B2
:100570002F8F00220EE0C489A4448489A44528BF9B
:10058000ACEB040CC3EA0C4C40E802C4002CE7D1ED
:100590004FF001028DF803200193019C9DF8032088
:1005A0000C6032B1006800EB144003B05DF8044BFE
:1005B000704702F0FF03184603B05DF8044B704724
:1005C0000A884B889A4201D00020704750E8022FD9
:1005D000C2EA224240E80223002BF7D101207047F3
:1005E000034653E8000F00EA010243E8002C9CF0A8
:1005F000000FF6D1704700BF014B1B68184700BFC2
:10060000B8000020064A074B527C07490748C1F84A
:100610001405013A43EA0243C1F81835704700BF98
:100620000000002020000001001000400600030030
:10063000074B08495B7C5A1E40EA024242EA00230B
:1006400043F08073044AC1F81425C1F81835704787
:1006500000000020001000400001010010B50B4B0D
:100660000B4C1B680B4A0C4943F00403C4F80032DE
:100670000B68D07C9847094A09490A4BC4F80425FD
:100680000948086004221A7010BD00BF1400002041
:10069000001000404001002090040020C80200200B
:1006A0008C0400206801002049070000F8B5214CA7
:1006B000A36A072B2CD8204B1A78012A06460D4630
:1006C00028D11E4F3A78202A22D8236A54F82300D2
:1006D00002701B49053006F0E3FC226A194854F801
:1006E00022104E707B78D0F8480588700132DB43C9
:1006F00003F00103072ACB7084BF00232362A36A9F
:100700000D714FF00100034498BF2262A362F8BD4F
:100710000020F8BD5A782AB9236A084F54F82300FC
:100720000270D6E7216ADA7C54F82100034F027088
:10073000CFE700BF7401002040010020C802002064
:10074000CA020020001000402DE9F0479D4CD4F86B
:100750000054002D00F0B6809B4B9B6A072B00F2E3
:10076000F880D4F80834994DD4F80C1435F82320C7
:10077000DFF88882914298F801204FEA52006DD04C
:1007800001274FF0000C9E00AC199149A0708D4CD0
:10079000087DD4F80CE425F823E018B112F0010A22
:1007A00000F0EF808B4B874A1B6843F00803C2F8C8
:1007B00000320C78002C00F0BF80012C5BD1864900
:1007C0008B6A002B00F0A880D2F80844834850F8C8
:1007D0002440002C00F0A080D2F8084450F82440B7
:1007E000D4F800E0AC1994F803907D4CC4F800E014
:1007F000B9F1000F1CD0BCF1000F19D1D2F808E4F8
:1008000050F82E2082F804C050F82E20013B926848
:1008100040F82E208B62002B77D0002A75D0D2F8BA
:1008200000E0704AC4F800E0136843F0010313606D
:10083000BEF1000F70D0AB1901216B4AD9709EF840
:1008400000001268DFF8B89190472168484611F817
:10085000052B00F8022B06F023FC68E005EB830172
:100860009E00897881420BBF002701274FF0010CC1
:100870004FF0000C88E7DFF888915C4A514B052166
:100880001170D3F808145A4AC3F82C15C3F804950C
:10089000584B13600FB9BDE8F0874A4B3544D3F885
:1008A0000804A978C0B2FFF701FF0028F3D04D4A31
:1008B000514913684FF4801043F004031360C1F8EA
:1008C0000001E8E7DFF80C91414AD9F80030C4F89C
:1008D0000032454BD07C1B689847484AC4F8042531
:1008E0000123C4F810512361D4F81031002BFBD040
:1008F0000023C4F81031D9F80030012243F004037A
:10090000C4F800326260BDE8F087364AC4F800C01F
:10091000136843F001031360AB19334ADFF8E0902A
:1009200012680024DC702046904789F8004098F84F
:10093000013089F80130A0E72B4BDFF8C4901B6829
:100940002046984798F8003089F8014089F800302F
:1009500093E7DFF880901E4AD9F80010224BC4F8C4
:1009600000121B68D07C98472449C4F80415002263
:100970000123C4F810212361D4F81031002BFBD0DF
:10098000B6E7DFF85090184BD9F80020C87CC4F8BF
:1009900000221B6898470123C4F80485C4F810A1FD
:1009A0002361D4F81031002BFBD00023C4F81031A0
:1009B000D9F8003043F00403C4F800320123636027
:1009C00068E700BF0010004074010020EC02002026
:1009D00040010020140000200C0300202001002012
:1009E000880400206001002090040020680100209D
:1009F0008C0400205D06000000E100E0C802002039
:100A000060040020124BD3F8002132B1D3F8042344
:100A1000D00744BF0022C3F800210D4BD3F80C21AE
:100A200032B1D3F80423110744BF0022C3F80C21CC
:100A3000074BD3F8102152B1D3F80423D20606D5C0
:100A4000044A0021C3F81011136803B11847704716
:100A5000001000408C040020002800F06B812DE97C
:100A6000F84FB54F3B7805463BB3B449B44BB54A54
:100A700000244FF47050C1F808051C70B24B14628A
:100A8000C2E9094421462022B0489C62C3E90844D7
:100A90003C7006F013FB08222146AD4806F00EFB21
:100AA000AC4B4FF48012C3F88020BFF34F8FBFF3DD
:100AB0006F8FA94B0322C3F80022A84CA84B6A6889
:100AC0001A6029461822204606F0EAFAA54B9F48EC
:100AD00000212022196006F0F1FA082200219C482A
:100AE00006F0ECFA9C4A237AA17AC2F80C15C2F8F7
:100AF0001035042B40D8DFE803F0033B3F033B00F5
:100B0000994A492313601368A1893E33994218D248
:100B100013683E330125A3812378B3B1012B18D18B
:100B2000924A934B1360627A012A00F0F980022AFC
:100B300026D0002A00F0EB80E07C98470720BDE833
:100B4000F88F23780125002BE8D1884A894B136060
:100B5000E9E7657A854B012D00F0E080022D0DD08C
:100B6000002D00F0D380E07C1B6898470720E6E763
:100B70007D4A30231360C6E70025CDE71B680025BA
:100B8000754A7D494FF6FF70C2F83C05C2F838152A
:100B90000222DFF8C481C8F83425E07C9847002D94
:100BA000CCD0764E6749684A754DDFF8ECE1DFF846
:100BB000EC91DFF888C106F1250A4FF0E7334A3699
:100BC000C8F81C358E6025366E4BCE6025360E611A
:100BD00025360020C1F804A0C3F80CA04E6106F130
:100BE0004A0A06F1250B4FF04336C1E90800C2E975
:100BF0000800886218719860187458619062C1F892
:100C000018B0C1F81CA0C8F820655F4EC8F824656C
:100C10005E4EC8F828656FF4817656440E6005F183
:100C20002501516005F14A01916005F16F01D16024
:100C300005F19401116105F1B9011E601560516162
:100C4000AAF1B90605F1DE0105F203159161D5613E
:100C50009E6125365E6225361E632536DE63C3F847
:100C600048B0C3F854A01877186283F82800D862F7
:100C700083F83400986383F84000586483F84C008C
:100C8000186583F85800D8650423CEE90100CEE941
:100C90000300CEE90500CEF80000CEF81C00C9F82C
:100CA000103540F20223C9F80805C9F80032384B64
:100CB000CCF860350433CCF86495CCF8683503F58E
:100CC0000F430C33CCF86C3503F59873CCF87035C2
:100CD000627CA37C2F4CCCF874451E4952015B0109
:100CE00004F51144D2B2DBB23434CCF87845CCF8F8
:100CF0007C8581F8012381F814334FF480130B6055
:100D00000F4A012310703B70BDE8F88F1B68124931
:100D10000022C1F83C25C1F838253AE71B680025B8
:100D20000D4AFF21C2F83C1540F20711C2F83815F0
:100D300001222EE70E2070475801002000F00140EC
:100D4000680100200C03002074010020EC02002048
:100D50006C01002000E100E0001000404001002094
:100D60005C01002060010020840400209004002029
:100D700005060000310600002110010038030020A4
:100D8000A0010020C0000020E743C323A363E313B6
:100D900000110040101000402001002000A0004081
:100DA000024B1878B0FA80F04009704768010020C3
:100DB00030B5174B174A1B78126883B001922BB3DA
:100DC000154B0222C3F88020BFF34F8FBFF36F8F04
:100DD000124900200D6808601A60114C2368ABB1FD
:100DE000E90703D58DF8000068469847AA0705D59E
:100DF000012223688DF80020684698476B0705D5C7
:100E0000022223688DF800206846984703B030BD61
:100E1000580100206401002000E100E06001002092
:100E20005C0100201A4B1B7873B378B310B5194CD2
:100E3000A36A3BB3184B0222C3F88020BFF34F8F45
:100E4000BFF36F8F636A54F823100A7802704B78EF
:100E5000437091F9023083700B790371CB78C370C2
:100E60000531053006F01CF9636A0133072B88BF92
:100E700000236362A36A013BA362074B02221A604C
:100E8000002010BD052010BD082070470E207047BF
:100E9000580100207401002000E100E01B490B789C
:100EA0008BBB03F0FF021A4B30B44FF0FF30C3F896
:100EB00008031848184CC3F8102104601748184C50
:100EC0000068102540F00400C3F80002C3F8045382
:100ED00004200870A07C1349E47CC3F83005124854
:100EE000C3F80845C3F804050220C1F88001086072
:100EF0000121C3F80421C3F80821C3F81021596067
:100F0000104630BC70471120704700BF68010020B8
:100F1000001000408C04002049070000140000204D
:100F20000000002000E100E0C802002038B50C4BB2
:100F30001B7883B9014680B10A4D0422284603F08C
:100F4000FF0406F0ADF82B6893FAA3F3064AC2F843
:100F50001C35204638BD112038BD0E2038BD00BFDD
:100F600068010020000000200010004038B50C4B44
:100F70001B7883B9014680B10A4D0422A81803F0FA
:100F8000FF0406F08DF86B6893FAA3F3064AC2F8E3
:100F90002035204638BD112038BD0E2038BD00BF99
:100FA000680100200000002000100040154B1B7855
:100FB00023BB28B3082970B50C461DD8124E0A462B
:100FC000014606F1080003F0FF0506F069F8C4F1D8
:100FD0000803FF221A413474B368B27493FAA3F37E
:100FE0000A491ABAF368C1F8242593FAA3F31BBA85
:100FF000C1F82835284670BD072070BD1120704704
:101000000E20704768010020000000200010004002
:10101000034620B1034AD27C1A60002070470E209C
:10102000704700BF00000020F8B5204A204B002484
:10103000C2F84041C2F84441C2F84841C2F84C41AC
:10104000C2F80041C2F804411B6833B31949D2F811
:1010500004550A68AD1A1A6825F07F45AA4227464A
:101060000DD8197CDE69AD1A144419B1D3E90520F5
:101070001F7490471EB133461A68AA42F1D90E492F
:101080000E4A0B7812789A4208D00D480D4A40F863
:1010900023404FF40011C2F80011F8BD531CDBB21D
:1010A000022B08BF00230B70EFE700BF00100140C8
:1010B000B4050020B0050020AD050020AC050020DF
:1010C000A405002000E100E02DE9F04FA64AA74961
:1010D00013780978994285B000F082810133DBB240
:1010E000022B08BF0023A2481370A24A0568DFF84C
:1010F0009C8252F82310D8F800C06B1823F07F436D
:101100000360BCF1000F00F0B7810024634626465F
:101110002746A64612E0DC68D8691F609644891A03
:101120003CB105EB0E0222F07F42C3E90124DE61EF
:101130001E460124002800F05A8103461A688A429C
:10114000E9D9002C00F08681C8F800309946521A7F
:101150001A6001230293884B884FDFF834A243F0D2
:1011600001034D4603934FF0000B7EB3D6E9010314
:101170003446F6697E4ADFF81CC21268811A21F0F3
:101180007F41614500F29B800B4423600022C4E94B
:101190000122E26101222274002D00F0A88029685A
:1011A000994280F09D802A4604E01068984280F0C1
:1011B000A28001469646D2699C465B1A002AF4D169
:1011C00070462360E261C461002ECFD1787839780F
:1011D000884219D0BA780B460131C9B203EB4303F8
:1011E0008A4207EBC30239701379946804BF002167
:1011F0003970022B00F09380032B00F08580012BC7
:1012000000F09B808142E5D1BBF1000F01D1A945DF
:101210002BD07DB3564A5A4B1468D3F80465594F06
:10122000D5F800803A78351B25F07F450335002A34
:1012300000F0E2805249A8452CBF4444641924F0D0
:101240007F43C1F84035D1F80425921B9B1B22F047
:101250007F42033223F07F439A4200F2E68000236C
:101260008AF8003005B0BDE8F08F029B002BF6D065
:10127000002DCFD1444B4FF40032C3F88020BFF390
:101280004F8FBFF36F8F3E4E3B4C4FF4803301279F
:10129000C6F848333C43C6F808334FF43C607760E7
:1012A000A047334BB7604FF43C601D60A047354BFF
:1012B0001D7000238AF8003005B0BDE8F08F121AC7
:1012C00022F07F429A4202D29B1A23605EE70023FB
:1012D0000122C4E90033A360E36122743DB12968AF
:1012E000C8F80040CB1A2B60E56125463DE7C8F8F9
:1012F0000040254639E7CDF804E086467144A1EB6D
:101300000C01019811605CE7002D3FF461AF0023F0
:101310002B74ED69002DFBD1C8F8005056E74DB194
:10132000A54252D02B4601E09C4235D01A46DB69DB
:10133000002BF9D10023237464E7237C002B7FF476
:1013400061AFD06860609C461369A3605169E16039
:1013500091699AF80020A161002A3FF40BAFC4F80C
:1013600004C0604606E700BFAC050020AD050020C4
:10137000B0050020A4050020F07A000094040020AD
:1013800000100140A105002000E100E0B4050020AC
:10139000A0050020FEFF7F00944217D0E16923687A
:1013A000D16169B128460A6813440B60854207D0B1
:1013B000002305463978787823744FF0010B21E734
:1013C00000233978787823741CE72A46E869C8F83E
:1013D0000000002840D0D16913680029E3D1E5E777
:1013E000DFF8B0800026D8F800900296B3E6814678
:1013F000C8F800000294AEE64FF48031214AC3F8E9
:101400004413C3F804134FF40031C2F88011116083
:101410001D4A4FF0010942F00102C3F800904FF459
:101420003C60904787F8009004E7174BD1F80425FB
:10143000C1F8402543F001034FF43C609847114B3D
:101440004FF40032C3F8002100238AF8003005B0C1
:10145000BDE8F08FE1467AE601920C4A0C4901237F
:10146000936008608AF800304FF43C60039B984713
:10147000D8F80000019AAEE70123E14666460293E0
:1014800069E600BF00E100E0F07A000000100140D2
:10149000B0050020B40500202DE9F843214E4FF49B
:1014A0000033C6F88030BFF34F8FBFF36F8F1E4DF0
:1014B0001E4FDFF890904FF480334FF00108002466
:1014C000C5F8483347EA0807C5F808334FF43C60CD
:1014D000C5F80480B847C5F808804FF43C60C9F8E7
:1014E0000040B847124A134B1470134A1C80146012
:1014F000124A1470124A14700B229A704FF40012A0
:10150000C023C6F8802186F815333260C5F80885F7
:1015100086F81133D5F80435C9F800302046BDE807
:10152000F88300BF00E100E000100140F07A000005
:10153000A105002094040020B4050020AC05002083
:10154000AD050020B0050020074B9B783BB142B1B0
:1015500038B10368187C10B959745A617047082073
:1015600070470720704700BF940400202DE9F04128
:10157000234EB378002B37D00446002834D0214BBB
:1015800090464A1F9A420D4631D8436963B3437C63
:101590000020012B0CBF0F460027FEF743FF737896
:1015A000B278591CC9B28A4208BF002132788A42F7
:1015B00020D003EB430306EBC3030120124A18714A
:1015C0009C60D2F80425DA60C3E904570020C3F810
:1015D00018807170FEF72EFF0C4B4FF40012C3F809
:1015E00000210020BDE8F0810820BDE8F08107203F
:1015F000BDE8F0810020FEF71DFF0420F2E700BFE8
:1016000094040020FAFFFF000010014000E100E018
:101610002DE9F047002384B0CDE90233B04AD2F877
:101620000011012900F04C811E46AD4BD3F8042176
:10163000012A00F03681AA4BD3F80821012A00F0D4
:101640002181A74BD3F80C21012A00F00C81A44B77
:10165000D3F81021012A00F0F780A14BD3F8142110
:10166000012A00F0E2809E4BD3F81821012A00F0F5
:10167000CD809B4BD3F81C21012A00F0B880984BF9
:10168000D3F87C21012A20D0E6B1964F0125002411
:10169000A30003F18043354203F5C0434FEA4505FB
:1016A0000BD0D3F8100557F82420D3F81015C0F349
:1016B0000520C1F3014102B190470134082CE7D164
:1016C000002E1BDB04B0BDE8F0870022C3F87C21AC
:1016D000D3F87C3101934FF0A042019BD2F8201542
:1016E000814B0291C2F82015D3F82025039246F0D1
:1016F0000041C3F82025002E40F0EF80794F7A4C4E
:1017000001264FF0A04597F95400431C56D0C0F372
:10171000C20202F110030DEB030200F0070312F8FE
:10172000082C06FA03F31A42C1B200F03F0036D08B
:101730001F2887BF01F01F02A64602464FF0A04EA9
:101740000EEB820307EB000CD3F80097D3F8008769
:1017500028F44038C3F80087C9F301499CF9248074
:10176000D3F800C757F82880B9F1020F0CBF4FF427
:10177000403A4FF4003A06FA02F24CEA0A0CC3F877
:1017800000C7CEF82025B8F1000F08D08909032939
:1017900027D0B9F1020F22D0B9F1030F23D0D5F829
:1017A00020250292C5F82025D4F820350393C4F8EB
:1017B00020351343A7D104B0BDE8F0874A494FF064
:1017C000A040D0F820250292C0F82025D1F820357D
:1017D0000393C1F8203513433FF474AFF1E70129B7
:1017E000DDD1C047DBE70229D9D1C047D7E7D3F81D
:1017F000042312067FF543AF0022C3F81C21D3F85F
:101800001C310093009B46F0800638E7D3F8042390
:1018100051067FF52EAF0022C3F81821D3F81831F6
:101820000093009B46F0400623E7D3F8042390067C
:101830007FF519AF0022C3F81421D3F814310093B7
:10184000009B46F020060EE7D3F80423D4067FF56C
:1018500004AF0022C3F81021D3F810310093009B8D
:1018600046F01006F9E6D3F8042315077FF5EFAE2E
:101870000022C3F80C21D3F80C310093009B46F0F2
:101880000806E4E6D3F8042357077FF5DAAE002212
:10189000C3F80821D3F808310093009B46F00406F2
:1018A000CFE6D3F8042392077FF5C5AE0022C3F834
:1018B0000421D3F804310093009B46F00206BAE6F7
:1018C000D2F8046316F001063FF4AFAEC2F800315F
:1018D000D2F800310093009BA7E60E46D5E600BF84
:1018E00000600040B80500200003005030B44C6890
:1018F0009C4208D2002545600968016093420CD0E3
:10190000002030BC704743600D6805600868E41A29
:10191000184493424C600860F2D1201E18BF012089
:1019200030BC70474B689A4228BF1A460B68C0E922
:101930000032D1E90030801A1A44C1E90020003891
:1019400018BF0120704700BF4B689A4228BF1A4653
:1019500062B10B68C0E90032D1E90030801A13444B
:10196000C1E90030101E18BF012070471346F1E78F
:1019700000B50A480A4A0B49126883B000234FF0A9
:10198000010C0370ADF805308DF807308DF804C0F8
:1019900001A80B70904703B05DF804FB140600200B
:1019A000180800201C080020704700BF00B583B055
:1019B0000D4B0E4900228DF80420D3F82025ADF8F8
:1019C0000620D3F8C0040A4A0968136800280CBF2F
:1019D0004FF480704FF00120034301A81360884743
:1019E00003B05DF804FB00BF00700240180800203F
:1019F000F4060020F8B54B680B4F934228BF1346FE
:101A00001D460C4606461A460968384605F048FB4E
:101A1000C6E90075D4E90020401B2A44C4E900202F
:101A2000003818BF0120F8BD20080020F8B54B6829
:101A3000934228BF13460D461C4606465BB93360E9
:101A40007460D5E90032121B2344C5E90032201E20
:101A500018BF0120F8BD044F09681A46384605F042
:101A60001FFB3760ECE700BF200800204FF08053D9
:101A7000D3F83031082B03D1164B0022C3F81C2CAD
:101A8000154B16499A7B0020032A08700CD010B51C
:101A90001C6882B06CB10F4B0122DA64BFF36F8F08
:101AA000BFF34F8F02B010BD0D486FF48031FEF7C9
:101AB00097BD6FF480310A48FEF792FD094BADF8EF
:101AC000064006221B688DF8042001A8984702B042
:101AD00010BD00BF00700240F8060020150600206F
:101AE000840600201808002010B5264BD3F80044C7
:101AF000C3F8004482B0BFF36F8FBFF34F8FBFF3C3
:101B00006F8FBFF34F8FE1050ED51F481F4A00238B
:101B100002218DF80730ADF805308DF80410036808
:101B2000012101A811709847A2050DD5164A174941
:101B30001268002303208DF80400ADF805308DF8FD
:101B4000073001A80B709047630519D50F4B1A7821
:101B5000B2B10C49012000221A70C1F8080588654D
:101B6000BFF36F8FBFF34F8F074BADF805200421F4
:101B70001B688DF804100DEB01008DF807209847C5
:101B800002B010BD007002401808002014060020AA
:101B900030B53F4B93F900201C78002A83B01ADB44
:101BA0003C493D4A04F00F0315680A6810330120D0
:101BB00000FA03F31A432B420A600AD1374B8DF81F
:101BC000070006221B688DF804208DF8064001A846
:101BD000984703B030BD04F00F02314B2D4833F865
:101BE00012300168012503F18043954003F51C3351
:101BF00029430160196812B2E1B100211960BFF3F5
:101C00006F8FBFF34F8F4FF08053802CD3F830315C
:101C100021D0082B04BF234BC3F81C1C224B0021EE
:101C20001970224B110103EB0212927B032A2AD076
:101C30005B5843B3184B1B682B40CAD1174A8DF829
:101C40000640062112688DF804108DF8073001A8AF
:101C5000904703B030BD082B08BF124B124A08BF93
:101C6000C3F81C1C124B0021117093F89E20032A0C
:101C700003D0D3F89030002BDCD16FF0010106487F
:101C8000FEF7AEFCD6E7E9430348FEF7A9FCD1E72F
:101C90001C080020F40600208406002018080020FC
:101CA0000C7B000000700240150600208807002011
:101CB000F80600202DE9F04FDFF820A2DFF820829F
:101CC000DAF80040D8F80030234089B000F09B805B
:101CD00013F0012400F09A8094FAA4F4002C00F090
:101CE0009A80B4FA84F94D460F2D1DD8DFF8F4B16F
:101CF0000FFA89FA0BEB0A164FEA0A1AB2895BF857
:101D00000A30716806A8984769F07F077FB24C4691
:101D100008B94BF80A00012303FA09F905F0080392
:101D20006FEA090B01932AE0A9F110056BB24FF09D
:101D3000010B0293634B0BFA09FB5FFA85F903EB86
:101D4000091615F008036FEA0B0B4C4601936AD194
:101D50004D465D4A05F5947352F8233000220192F6
:101D6000B28971683768039306A8B847069A1AB112
:101D7000079A039B93427BD8029F00B930604FF0D3
:101D80008053D3F83031082B03D14F4B8222C3F854
:101D90001C2CD8F80030079A03EA0B03C8F800306F
:101DA000B3681344B360494B0121002F1970069B9F
:101DB000019946DB00294DD04349AD00C1F8A03759
:101DC000C1F8A42728232B44DBB203F1804303F599
:101DD0001C3301221A60BFF36F8FBFF34F8F3C4A51
:101DE0003C4B394913EA270338BF134633F8142014
:101DF00002F1804202F51C3202E0D1F8003113B941
:101E00001368002BF9D009B0BDE8F08F93FAA3F462
:101E1000002C7FF466AF10232A4E029325464FF024
:101E2000FF3B994695E7284BD3F8C034DA0346D5F3
:101E30003568B2897168029F06A80023A8474D46FD
:101E40009BE771B32049AD00C1F8A036C1F8A426C4
:101E50000423B8E705EB8501890001F1804101F514
:101E60001C31AD00C1F80037C1F804272823AAE7C8
:101E700002245946B4735046FEF7B2FB164B8DF858
:101E8000174006221B688DF816908DF8142005A8BF
:101E90009847DAF80040D8F8003023407FF418AFB4
:101EA000B1E705EB8501890001F1804101F51C31A5
:101EB000AD00C1F80036C1F80426042383E74D467F
:101EC0004EE700BFF8060020007002401506002013
:101ED0002C7B00000C7B00001808002084060020EA
:101EE000F40600208807002010B54FF0805382B020
:101EF000D3F83031082B03D1164B0022C3F81C2C29
:101F0000154B164C93F83E200021032A217006D071
:101F10001B6B73B102B0BDE81040FFF7CBBE104899
:101F20006FF40021FEF75CFB2378002BF2D002B0A7
:101F300010BD6FF400210A48FEF752FB094B062141
:101F400003221B688DF80410ADF8062001A89847FD
:101F5000EAE700BF00700240F806002015060020E6
:101F600084060020180800204FF08053D3F8303149
:101F7000082B03D1114B0022C3F81C2C104B114924
:101F800093F88E200020032A087002D0D3F8803006
:101F900003B1704700B56FF0807183B00A48FEF757
:101FA0001FFB0A4B062108221B688DF80410ADF8B0
:101FB000062001A8984703B05DF804FB00700240BA
:101FC000F8060020150600208406002018080020CE
:101FD0004FF08053D3F83031082B03D1144B00223B
:101FE000C3F81C2C134B144993F81E210020032A1C
:101FF000087003D0D3F810312BB170470F486FF43D
:102000008071FEF7EDBA00B56FF4807183B00B48B4
:10201000FEF7E6FA0A4B062188221B688DF80410A9
:10202000ADF8062001A8984703B05DF804FB00BF97
:1020300000700240F80600201506002084060020EB
:10204000180800204FF08053D3F83031082B03D10B
:102050000A4B0022C3F81C2C094B0A4993F89E2016
:102060000020032A087003D0D3F8903003B17047E2
:1020700005486FF00101FEF7B3BA00BF00700240DF
:10208000F806002015060020840600204FF080533B
:10209000D3F83031082B03D10A4B0022C3F81C2C93
:1020A000094B0A4993F8AE200020032A087003D098
:1020B000D3F8A03003B1704705486FF00201FEF776
:1020C0008FBA00BF00700240F806002015060020FD
:1020D000840600204FF08053D3F83031082B03D111
:1020E0000A4B0022C3F81C2C094B0A4993F8BE2066
:1020F0000020032A087003D0D3F8B03003B1704732
:1021000005486FF00401FEF76BBA00BF0070024093
:10211000F806002015060020840600204FF08053AA
:10212000D3F83031082B03D10A4B0022C3F81C2C02
:10213000094B0A4993F8CE200020032A087003D0E7
:10214000D3F8C03003B1704705486FF00801FEF7BF
:1021500047BA00BF00700240F806002015060020B4
:10216000840600204FF08053D3F83031082B03D180
:102170000A4B0022C3F81C2C094B0A4993F8DE20B5
:102180000020032A087003D0D3F8D03003B1704781
:1021900005486FF01001FEF723BA00BF007002403F
:1021A000F806002015060020840600204FF080531A
:1021B000D3F83031082B03D10A4B0022C3F81C2C72
:1021C000094B0A4993F80E210020032A087003D016
:1021D000D3F8003103B1704705486FF08001FEF776
:1021E000FFB900BF00700240F8060020150600206D
:1021F000840600204FF08053D3F83031082B03D1F0
:102200000A4B0022C3F81C2C094B0A4993F8EE2014
:102210000020032A087003D0D3F8E03003B17047E0
:1022200005486FF02001FEF7DBB900BF00700240E7
:10223000F806002015060020840600204FF0805389
:10224000D3F83031082B03D10A4B0022C3F81C2CE1
:10225000094B0A4993F8FE200020032A087003D096
:10226000D3F8F03003B1704705486FF04001FEF736
:10227000B7B900BF00700240F80600201506002024
:102280008406002010B54FF0805382B0D3F830316F
:10229000082B03D1154B0022C3F81C2C144B154CF2
:1022A0009A7F0021032A217006D01B6973B102B006
:1022B000BDE81040FFF7FEBC0F486FF40031FEF799
:1022C0008FF92378002BF2D002B010BD6FF40031EB
:1022D0000948FEF785F9094B062101221B688DF894
:1022E0000410ADF8062001A89847EAE70070024004
:1022F000F80600201506002084060020180800209B
:1023000010B54FF0805382B0D3F83031082B03D191
:10231000164B0022C3F81C2C154B164C93F84E207C
:102320000021032A217006D01B6C73B102B0BDE8F6
:102330001040FFF7BFBC10486FF48011FEF750F952
:102340002378002BF2D002B010BD6FF480110A4840
:10235000FEF746F9094B042206211B688DF804108C
:10236000ADF806200DEB02009847E9E70070024047
:10237000F80600201506002084060020180800201A
:1023800010B54FF0805382B0D3F83031082B03D111
:10239000164B0022C3F81C2C154B164C93F85E20EC
:1023A0000021032A217006D01B6D73B102B0BDE875
:1023B0001040FFF77FBC10486FF40011FEF710F9D2
:1023C0002378002BF2D002B010BD6FF400110A4840
:1023D000FEF706F9094B062105221B688DF804104B
:1023E000ADF8062001A89847EAE700BF0070024058
:1023F000F80600201506002084060020180800209A
:1024000010B54FF0805382B0D3F83031082B03D190
:10241000154B0022C3F81C2C144B154C93F86E205E
:102420000021032A217006D01B6E73B102B0BDE8F3
:102430001040FFF73FBC0F486FF48001FEF7D0F863
:102440002378002BF2D002B010BD6FF48001094850
:10245000FEF7C6F8084A062312688DF80430ADF876
:10246000063001A89047EBE700700240F806002014
:1024700015060020840600201808002010B54FF033
:10248000805382B0D3F83031082B03D1164B002291
:10249000C3F81C2C154B164C93F87E200021032A00
:1024A000217006D01B6F73B102B0BDE81040FFF77A
:1024B00001BC10486FF40001FEF792F82378002B5E
:1024C000F2D002B010BD6FF400010A48FEF788F8A0
:1024D000094B062107221B688DF80410ADF8062071
:1024E00001A89847EAE700BF00700240F806002004
:1024F00015060020840600201808002010B54FF0B3
:10250000805382B0D3F83031082B03D1164B002210
:10251000C3F81C2C154B164C93F82E200021032ACF
:10252000217006D01B6A73B102B0BDE81040FFF7FE
:10253000C1BB10486FF48021FEF752F82378002BBE
:10254000F2D002B010BD6FF480210A48FEF748F8BF
:10255000094B062102221B688DF80410ADF80620F5
:1025600001A89847EAE700BF00700240F806002083
:102570001506002084060020180800202DE9F047E9
:10258000564BD3F86C44C3F86C4482B0BFF36F8FE2
:10259000BFF34F8F524F04B3524DDFF85C81524E60
:1025A00094FAA4F109B3B1FA81FCBCF10F0F6146B2
:1025B0002ADD4E48D8F80020012303FA0CFC0368FA
:1025C000103942EA0C021CEA030FC8F80020C9B215
:1025D00024EA0C040AD0002CE2D13B78002B7AD1FB
:1025E00002B0BDE8F047FFF765BB102106200122CD
:1025F0008DF804002B688DF806108DF8072001A8CF
:102600009847002CCCD1E8E70CF00F0ED8F800006A
:1026100036F81E2002F1804202F51C32012303FA33
:102620000CFA136840EA0A004CF08009C8F8000070
:1026300024EA0A047146F3B100231360BFF36F8FDD
:10264000BFF34F8F4FF08052B9F1800FD2F8302195
:102650002BD0082A04BF214AC2F81C3C244B00227C
:102660003A7003EB0E124FEA0E1E927B032A14D02F
:1026700053F80E308BB11D4B1B681AEA0303AAD125
:1026800006212A688DF804108DF806908DF8073021
:1026900001A89047002C83D19FE7012303FA01F1A1
:1026A000C9431248FDF79CFFE5E7082A04BF0B4A1F
:1026B000C2F81C3C0F4B00223A7093F89E20032A6C
:1026C00003D0D3F89030002BD5D16FF0010107482B
:1026D000FDF786FFCFE702B0BDE8F087007002404B
:1026E00015060020180800200C7B0000840600203E
:1026F00088070020F8060020F40600202DE9F04F9E
:10270000644CDFF898912368DFF89C81D9F80020A9
:10271000DFF898A198F80070DAF88054DB439BB298
:10272000134398F90020002A85B024DB07F00F0B33
:102730000BF1100201269640334245D1564F03AEAD
:1027400005F080056FF00111544888F80050FDF73E
:1027500047FF23683A6843F0010323600521002303
:102760003046ADF80D308DF80F308DF80C109047D5
:1027700005B0BDE8F08F07F00F0B012606FA0BF647
:102780003342DBD00020FDF74DFE3B0712D4802FF3
:102790006FD00BF2DA335B00CAF80038DAF804388D
:1027A000DAF80428DBB243F002031343CAF8043812
:1027B000DAF804382368D9F8002062EA03013142CC
:1027C00021D1354F03AE1AE00020FDF72BFED9F8DA
:1027D0000030334936EA03004FEA0B1C01EB0B12C1
:1027E0002DD123EA0603C9F80030236841F80C0014
:1027F00023EA060323600323274F937303AE0020CD
:10280000FDF718FE9CE722EA06023343C9F80020D0
:1028100023604FEA0B12234B8DF80E700021995064
:1028200003EB0B1303221C4F9A7303AE06238DF8A0
:102830000C308DF80F203B6830469847DFE70020CA
:102840000192FDF7EFFD2368019A23EA060317F0D2
:102850000807236007D10BF5947B4AF82B70BFF370
:102860006F8FBFF34F8F00200192FDF7E3FD019AB8
:10287000C1E740F2B473CAF80038DAF80438DAF87D
:102880000428DBB243F004031343CAF80438DAF82F
:1028900004388FE7F4060020180800208406002082
:1028A000F8060020880700201C0800200070024065
:1028B000F0B5044683B00020FDF7B4FD220621D414
:1028C00004F00F06444A454906F1100301259D40D6
:1028D000136835EA03004FEA061C01EB061751D1D5
:1028E00041F80C003E4923EA050313600B6823EA14
:1028F00005030B600323BB73002003B0BDE8F04069
:10290000FDF798BD230704F00F0013D4802C354A3F
:1029100050D000F2DA335B00C2F80038D2F8043845
:10292000D2F80418DBB243F002030B43C2F80438B8
:10293000D2F804382A4D284E2A6831680123834092
:1029400061EA02071F42D7D08DF8064021EA030151
:10295000254C316013432B60062322688DF8043028
:102960000401224B00261E5103EB0013032101A892
:102970008DF8071099739047002003B0BDE8F04030
:10298000FDF758BD0020FDF74DFD154A136814F002
:10299000080423EA0503136008D1124B06F5947668
:1029A00043F82640BFF36F8FBFF34F8F0020FDF732
:1029B00041FD9FE740F2B473C2F80038D2F8043802
:1029C000D2F80418DBB243F004030B43C2F8043816
:1029D000D2F80438AEE700BF84060020F8060020D5
:1029E000F40600200070024018080020880700202C
:1029F0002DE9F041DFF8B4E0DEF80413002946D0F9
:102A00000024DFF8AC802746012691FAA1F3244A7E
:102A1000B3FA83F04FEA800C624443B3156806FAB8
:102A200000F321EA03012DB11760BFF36F8FBFF3ED
:102A30004F8F1C430029E8D104F4000634F400044D
:102A40000FD0184F012594FAA4F3B3FA83F205FAD4
:102A500002F193B124EA010457F822309847002C80
:102A6000F1D1114B1B7853B16EB9BDE8F081DEF89E
:102A7000800142460028D7D1C7E79847E3E7FFF730
:102A800019F9002EF1D0BDE8F041FFF737BE064B33
:102A90001B78002BE9D1BDE8F041FFF70BB900BF6F
:102AA00000710240407B00001506002000700240CB
:102AB0008071024010B4474C2278002A40F0868092
:102AC0004549464B08604FF4007C402101202070AE
:102AD00083F89E20A3F89C10C3F89020C3F8982098
:102AE000A3F8AC1083F8AE20C3F8A020C3F8A82048
:102AF000A3F8BC1083F8BE20C3F8B020C3F8B820F8
:102B0000A3F8CC1083F8CE20C3F8C020C3F8C820A7
:102B1000A3F8DC1083F8DE20C3F8D020C3F8D82057
:102B2000A3F8EC1083F8EE20C3F8E020C3F8E82007
:102B3000A3F8FC1083F8FE20C3F8F020C3F8F820B7
:102B4000A3F80C1183F80E21C3F80021C3F8082163
:102B5000A3F81CC183F81E21C3F81021C3F8182163
:102B600099819A731A609A6099839A771A619A6127
:102B7000998583F82E201A629A62998783F83E20FD
:102B80001A639A63A3F84C1083F84E201A649A646F
:102B9000A3F85C1083F85E201A659A65A3F86C10A0
:102BA00083F86E201A669A66A3F87C1083F87E205C
:102BB0001A679A67A3F88CC083F88E20C3F8802028
:102BC000C3F8882010465DF8044B704708205DF874
:102BD000044B70471606002018080020F806002055
:102BE0000249034A00230B60137070471808002045
:102BF00016060020954B4FF4006210B5C3F8002470
:102C0000BFF36F8FBFF34F8F4FF08053D3F8302156
:102C1000082A00F0B8808D4A0123C2F80035BFF3BE
:102C20006F8FBFF34F8FD2F800341B05FBD54FF4E5
:102C30000063C2F80034BFF36F8FBFF34F8F4FF0C4
:102C40008053D3F83031082B3ED0804B80498148E7
:102C50008024C3F81C45002240F2FF14C3F830253D
:102C60000C604FF080510260D1F830117A4C7B48F3
:102C7000082908BFC3F81C2C0023794A237003706D
:102C800002214FF080531170D3F83021082A00D070
:102C900010BDD3F83431052B40F2A5800020FDF79C
:102CA000C1FB704BD3F8002C002A40F0AB8049F2F6
:102CB0007531C3F8001CC3F8142DC3F8001CBDE81F
:102CC00010400020FDF7B6BB0020FDF7ABFB654BC5
:102CD000D3F8002C002A00F08C800022C3F8142CBA
:102CE0000020FDF7A7FB4FF08053D3E94C23082ABF
:102CF000ABD1052B02D85C4AD35CBBB30020FDF7F7
:102D000091FB584BD3F8002C002A40F0918049F2F7
:102D10007531C3F8001CC3F8142DC3F8001C002043
:102D2000FDF788FB4FF08053D3E94C23082A8CD160
:102D3000052B40F285800020FDF774FB494BD3F84A
:102D4000002C002A78D149F275320321C3F8002CF7
:102D5000C3F8141DC3F8002C0020FDF76BFB4FF0E7
:102D60008053D3F83031082B7FF46FAF374B40F2EC
:102D7000E3714022C3F80018C3F80428BFF36F8F33
:102D8000BFF34F8F61E7D3F83431052B17D8364A9C
:102D9000D35CA3B90020FDF745FB324BD3F8002CE0
:102DA000002A41D149F27532C021C3F8002CC3F882
:102DB000141CC3F8002C0020FDF73CFB2BE700207F
:102DC000FDF730FB274BD3F8002C1AB30322C3F8CE
:102DD000142D0020FDF72EFB4FF08053D3F8303137
:102DE000082BD7D017E7204AD35C002B3FF450AF15
:102DF00054E749F27531C3F8001CC3F8142CC3F82A
:102E0000001C6DE70022C3F8142DBDE8104000201F
:102E1000FDF710BB49F275320321C3F8002CC3F84B
:102E2000141DC3F8002CD4E7C022C3F8142CC2E749
:102E30000022C3F8142D72E70322C3F8142D8BE788
:102E4000094AD35C002B7FF476AF8FE70070024015
:102E5000F406002084060020150600201C0800202F
:102E60001606002000E00640F87A00002DE9F04F39
:102E70007A4B8022C3F884215B681A0683B01CD485
:102E8000774B0022D3F80413C3F80813C3F80025C6
:102E9000BFF36F8FBFF34F8F4FF080510020D1F8F9
:102EA0003011082908BFC3F81C2C6E496E4B0870FE
:102EB00001221A7003B0BDE8F08F6C4D6C4E2B6888
:102EC00032684FEA134A4FEA0A4A5AEA020A18D00D
:102ED000634F9AFAAAF4002C79D0B4FA84FBBBF1C0
:102EE0000F0F26DDABF1100423075FFA84F840F1E1
:102EF0008680012303FA0BFB2AEA0B0ABAF1000FC2
:102F0000E7D1574B40F2FF1100222960C3F8042596
:102F1000BFF36F8FBFF34F8F504A8021C2F88410E8
:102F2000BFF34F8FBFF36F8F4FF0FF32C3F808230B
:102F3000A6E71BF00800DCD1FDF774FA4BF0800C1B
:102F4000BCF1800F0BF00F0377D003F2DA3252009E
:102F5000C7F80028D7F80428D7F80418D2B242F0EE
:102F600002020A43C7F80428D7F804282A683168FF
:102F7000012404FA03F061EA020E1EEA000F1BD0DE
:102F800002432A603B4A8DF806C021EA0001316005
:102F90001801114602EB0313374A4FF0000CD2F828
:102FA000008041F800C003229A7306238DF80720A1
:102FB0008DF8043001A8C04704FA0BF42AEA040A89
:102FC0000020FDF737FABAF1000F82D199E7A04649
:102FD0002A4C6FF480394FF4803B0020FDF722FA31
:102FE00030683BEA000215D12B68226000EA090034
:102FF00003EA090330602B600323A373E0E71F4B50
:10300000012202FA0BFB2AEA0B0A6FEA0B0903EB17
:103010000814E2E70020FDF705FA2A6808F5947322
:1030200002EA090200202A6047F82300BFF36F8FED
:10303000BFF34F8FFDF7FEF9DEE740F2B472C7F839
:103040000028D7F80428D7F80418D2B242F00402B6
:103050000A43C7F80428D7F8042887E700E100E00E
:10306000007002401506002016060020F40600201D
:10307000840600208807002018080020F806002099
:103080000E4A0F4B0F494FF0000C10B4604518BFAB
:1030900013460D4C0D4A84F800C0C2F80433C02317
:1030A00081F8273380234B600123C2F80435BFF336
:1030B0006F8FBFF34F8F5DF8044B70470714E0012B
:1030C0000714C00100E100E0140600200070024077
:1030D0006E4B8022C3F884215B681A0600D47047C7
:1030E0002DE9F04F6A4D6B4E2B6832684FEA134A58
:1030F0004FEA0A4A5AEA020A83B018D0664F9AFA8F
:10310000AAF4002C7BD0B4FA84FBBBF10F0F28DDAE
:10311000ABF1100423075FFA84F840F188800123A3
:1031200003FA0BFB2AEA0B0ABAF1000FE7D15A4B5C
:1031300040F2FF1100222960C3F80425BFF36F8F0E
:10314000BFF34F8F514A8021C2F88410BFF34F8FD5
:10315000BFF36F8F4FF0FF32C3F8082303B0BDE811
:10316000F08F1BF00800DAD1FDF75CF94BF0800C12
:10317000BCF1800F0BF00F0377D003F2DA3252006C
:10318000C7F80028D7F80428D7F80418D2B242F0BC
:1031900002020A43C7F80428D7F804282A683168CD
:1031A000012404FA03F061EA020E1EEA000F1BD0AC
:1031B00002432A60394A8DF806C021EA00013160D5
:1031C0001801114602EB0313354A4FF0000CD2F8F8
:1031D000008041F800C003229A7306238DF807206F
:1031E0008DF8043001A8C04704FA0BF42AEA040A57
:1031F0000020FDF71FF9BAF1000F80D197E7A04634
:10320000284C6FF480394FF4803B0020FDF70AF919
:1032100030683BEA000215D12B68226000EA090001
:1032200003EA090330602B600323A373E0E71D4B1F
:10323000012202FA0BFB2AEA0B0A6FEA0B0903EBE5
:103240000814E2E70020FDF7EDF82A6808F594730A
:1032500002EA090200202A6047F82300BFF36F8FBB
:10326000BFF34F8FFDF7E6F8DEE740F2B472C7F820
:103270000028D7F80428D7F80418D2B242F0040284
:103280000A43C7F80428D7F8042887E700E100E0DC
:10329000F406002084060020007002408807002009
:1032A00018080020F8060020024B1878003818BFD4
:1032B0000120704716060020034B1878012894BFA0
:1032C00000200120704700BF160600202DE9F04FB6
:1032D000002083B0FDF7A6F86B4B1B783BB90027A5
:1032E0000020FDF7A7F8384603B0BDE8F08F674E21
:1032F000DFF8AC81346803F0FF07240CD8F8003005
:1033000024041C4316D094FAA4F5002D78D0B5FA05
:1033100085F9B9F10F0F21DDA9F1100528075FFA32
:1033200085FA40F18780012303FA09F924EA0904A8
:10333000002CE8D140F2FF13554A3360D2F8003434
:1033400013F40073CBD10121C2F82C15D2F800146C
:10335000890544BFC2F82C351F46C1E719F00800A3
:10336000E1D1FDF75FF849F0800CBCF1800F09F066
:103370000F037ED0464903F2DA325200C1F800282A
:10338000D1F80428D2B242F002020846D1F804185B
:103390000A43C0F80428D0F80428D8F8001032688E
:1033A000012505FA03F061EA020E1EEA000F09D1B9
:1033B00005FA09F524EA05040020FDF73BF8002C86
:1033C000A1D1B7E702433260324A8DF806C021EA44
:1033D0000001C8F800101801114602EB03132E4A31
:1033E0004FF0000CD2F800A041F800C003229A73FD
:1033F00006238DF807208DF8043001A8D047D7E7C1
:10340000AA46264D6FF4803B4FF480390020FDF72B
:1034100009F8D8F8001039EA010216D133682A6099
:1034200001EA0B0103EA0B03C8F800103360032321
:10343000AB73C1E7194B012202FA09F924EA090426
:103440006FEA090B03EB0A15E0E70020FCF7EAFF3F
:10345000326802EA0B0232600AF594730C4A0020CB
:1034600042F82300BFF36F8FBFF34F8FFCF7E2FFEB
:10347000DDE7074940F2B472C1F80028D1F804280A
:10348000D2B242F0040280E714060020F4060020C5
:10349000007002408807002018080020F80600206D
:1034A0008406002010B50020FCF7BCFF174B1B78EA
:1034B00003F0FF0463B1164AD2F82C356BB14FF01C
:1034C00080530021D3F83031C2F82C15082B0AD0D4
:1034D0000020FCF7AFFF204610BD1C460020FCF783
:1034E000A9FF204610BD0B4BD3F8002C4AB949F276
:1034F0007532C021C3F8002CC3F8141CC3F8002C8B
:10350000E6E7C022C3F8142CE2E700BF140600204F
:103510000070024000E00640024B034AC3F8082353
:10352000704700BF0070024004148001024B034A40
:10353000C3F80423704700BF0070024004148001E8
:10354000014B00221A70704714060020064B10F041
:10355000800FA3F1900208BF134600F00F0003EBA9
:1035600000139889704700BF88070020064A0106AB
:1035700000F00F034CBFD2F81005D2F81405D84064
:1035800000F00100704700BF007002404FFA80FC5D
:10359000BCF1000F38B545DB2D4A00F00F040123C4
:1035A000115D2C4A03FA01F1C2F80413D2F8141584
:1035B000E140C90735D4D2F81415A3400B43C2F833
:1035C0001435BFF36F8FBFF34F8F54B3BCF1000FAF
:1035D00027DB10F0080524D12846FCF723FF2846F6
:1035E000FCF720FF1C4904F11002012393400A68F4
:1035F00004F5947022EA0302DC43164B0A6043F898
:103600002050BFF36F8FBFF34F8F2846FCF712FF98
:10361000124A1368234013602846BDE83840FCF77F
:1036200009BF38BD0E4A00F00F040123115D094A9D
:1036300003FA01F1C2F80413D2F81015E140CD07E6
:10364000EFD4D2F81015A3400B43C2F81035B8E7F9
:10365000207B000000700240F40600208406002059
:10366000007B00002DE9F041044682B0002067B2E3
:10367000FCF7D8FE002F3BDB04F00F055749584AF2
:1036800005F1100301269E400B6836EA03004FEA5D
:10369000051C02EB051877D142F80C00514A23EAC9
:1036A00006030B60136823EA06031360032388F8FC
:1036B0000E300020FCF7BEFE4B490122D1F8143534
:1036C000AA4023EA0203C1F81435BFF36F8FBFF39A
:1036D0004F8F464B464A444912EA270238BF1A46E2
:1036E0000123525D9340C1F8083302B0BDE8F08178
:1036F00004F00F002307054613D4802C5CD03A4A0F
:1037000000F2DA335B00C2F80038D2F80438D2F89D
:103710000418DBB243F002030B43C2F80438D2F8BA
:103720000438304EDFF8B4C03268DCF800100123F2
:10373000834061EA020E1EEA030F23D01A4332606F
:103740002C4A8DF8064021EA0301CCF80010DC4336
:103750001168294B020100269E5003EB001303223F
:103760009A7306238DF807208DF8043001A8884746
:103770000020FCF75FFE1C4AD2F810352340C2F847
:103780001035A2E7DC43F3E70020FCF74BFE154AB7
:10379000136814F0080423EA0603136008D1124BDF
:1037A00005F5947243F82240BFF36F8FBFF34F8F3C
:1037B0000020FCF73FFE79E70B4A40F2B473C2F8F1
:1037C0000038D2F80438D2F80418DBB243F004030E
:1037D0000B43C2F80438D2F80438A2E7840600206C
:1037E000F8060020F406002000700240207B000054
:1037F000007B000018080020880700202DE9F8430E
:1038000047B2002F00F00F0504464FF00000B4BF90
:1038100080464FF010080E46FCF704FE55B9324BB7
:103820001B78A34206D010240020FCF703FE20469C
:10383000BDE8F8832D4BDFF8DCC01C68DCF8001015
:10384000E44308EB0502A4B201230C4393401C405F
:1038500025D1002F2ADB264A2648DFF8BCE02F01BD
:1038600002EB051942F807E005EB450500EB85087A
:1038700041EA030E96E807001F4DCCF800E0002750
:10388000802388E80700C9E9018789F80E700020C5
:10389000C5F80431FCF7CEFD2046BDE8F8831124BD
:1038A0000020FCF7C7FD2046BDE8F8833268134FBF
:1038B000134802F0604205EB4508B2F1005F07EBE8
:1038C000880800EB05194FEA051706D0B268D20741
:1038D00054BF0C4A0C4AC251CAE7B268D50754BF5C
:1038E0000A4A0B4AC251C3E71C080020F406002014
:1038F000F80600201806002000E100E088060020FD
:1039000088070020F51900002D1A00002519000075
:103910004919000084060020ED1800002DE9F0414F
:1039200047B2002F00F00F0504464FF00000B4BF6F
:1039300080464FF010080E46FCF774FD55B91D4B3C
:103940001B78A34206D010240020FCF773FD20460C
:10395000BDE8F081184B194A1C681168E443A8447B
:10396000A4B201230C4303FA08F31C401BD10B4300
:103970001349A1F1900C11EA270138BF61462801D3
:1039800001EB0515AC6037680F5013600D4B716883
:1039900069608022AC730020C3F80421FCF74AFD63
:1039A0002046BDE8F08111240020FCF743FD2046AD
:1039B000BDE8F0811C080020F406002084060020E9
:1039C0008807002000E100E0004870472008002040
:1039D000044B40F48070C3F81805BFF36F8FBFF33A
:1039E0004F8F70470070024003062DE9F0410446F6
:1039F0000FD410F008070CD100F00F05AD0005F151
:103A0000804505F51C3500F00F08D5F84464012EFB
:103A100008D00F4BC3F81845BFF36F8FBFF34F8F1C
:103A2000BDE8F0813846FCF7FDFC0A4AC5F8A074F1
:103A3000136808F1100806FA08F623EA060616606D
:103A4000BFF36F8FBFF34F8F3846FCF7F3FCE0E70F
:103A500000700240F4060020010718D4020600F0AE
:103A60000F0309D40B4A9B001A445068A0F10100CF
:103A7000B0FA80F040097047074A03F5847352F8A2
:103A80002300A0F10100B0FA80F040097047002047
:103A9000704700BF4074024000700240064BC3F8FC
:103AA0000C05BFF34F8F40F48070C3F80C05BFF3D3
:103AB0006F8FBFF34F8F70470070024010B5082220
:103AC0000021044603F0FAFA0E4BD3F8802422704A
:103AD000D3F884246270D3F88824D3F88C1442EA93
:103AE00001226280D3F89024D3F8941442EA012290
:103AF000A280D3F89824D3F89C3442EA0323E380CD
:103B000010BD00BF00700240034B0122DA64BFF316
:103B10006F8FBFF34F8F704700700240034B01223D
:103B20001A65BFF36F8FBFF34F8F7047007002406D
:103B3000034B01225A65BFF36F8FBFF34F8F70475E
:103B400000700240014B1878704700BF1C0800202D
:103B50000E4A1378C3B903780D494FF0804CC3F374
:103B60004003CCF88035037803F00103CCF87835B6
:103B70000B68DB0704D4C02381F8003301230B60FA
:103B80000123137000207047852070476C080020C7
:103B900000E100E0014B02681A60704768080020ED
:103BA0004FF080434FF46072C3F80423704700BFA6
:103BB0004FF080434FF46072C3F80823704700BF92
:103BC000014B00221A6070476808002010B54FF0C2
:103BD000804386B0D3F80443620703D5D3F80821A5
:103BE000002A62D1A30605D54FF08043D3F81421F3
:103BF000002A4FD1600605D54FF08043D3F8182135
:103C0000002A3BD1210604D54FF08043D3F81C2174
:103C10004ABBE20504D54FF08043D3F82021B2B966
:103C2000A30512D54FF08043D3F824216AB10022B6
:103C3000C3F82421D3F82421214B0592059A1B684F
:103C4000022006B0BDE81040184706B010BD0022A3
:103C5000C3F820211A4AD3F82031049301201368B5
:103C6000049A9847DCE70020C3F81C01144AD3F8F3
:103C70001C3103931368039A9847CAE70022C3F8DC
:103C80001821104AD3F81831029301201368029AC0
:103C90009847B7E70020C3F814010A4AD3F8143153
:103CA00001931368019A9847A4E70022C3F80821FA
:103CB000054AD3F8083100931368009A984791E7B2
:103CC00068080020640800206008002008B5FFF79D
:103CD0007DFFBDE8084002F0F5BD00BF30B583B000
:103CE000124801A9FCF7F8FBF0B1114D0446286811
:103CF00020600020FCF796FB0E4B0F481B880268E3
:103D000001339B1AE3800021FCF79EFBA08000207A
:103D1000FCF790FB01A90548FCF710FC074B1B685A
:103D200001460BB12846984703B030BD1C0A00205D
:103D3000C07B0000100900203C0A0020740800200D
:103D400030B50378052B83B0054625D0002B2AD14A
:103D50002B4B1C683CB1236868889B689847236894
:103D60005C68002CF7D1274C0020FCF75BFB236834
:103D700013B9254B6A881A8001212248FCF76EFB93
:103D80000020FCF757FB214B1B6813B1012128468B
:103D90009847236803B030BD1D4BD3F88424D3F873
:103DA0008034DBB233B31B4801A9FCF795FB044612
:103DB0000028EFD02B6823600020FCF733FB124B68
:103DC00010481B88026801339B1AE3800021FCF72E
:103DD0003BFBA0800020FCF72DFB01A90D48FCF760
:103DE000ADFB0A4B1B680146002BD3D028469847F1
:103DF00003B030BD084BD2B2052A08BF1D46D2E73A
:103E0000340A00203C0A0020100900207408002019
:103E1000007002401C0A0020BC7B000070B5012825
:103E200082B006D0022804462AD0002831D002B041
:103E300070BD2B4801A9FCF74FFB04460028F6D0C3
:103E4000284D286820600020FCF7ECFA264B274814
:103E50001B88026801339B1AE3800021FCF7F4FA07
:103E6000A0800020FCF7E6FA01A91D48FCF766FBDC
:103E70001F4B1B680146002BD9D028469847D6E730
:103E8000174801A9FCF728FB04460028CFD0194D9C
:103E9000D7E7134801A9FCF71FFB05460028C6D049
:103EA000154E306828602046FCF7BCFA0E4B0F48D0
:103EB0001B88026801339B1AEB802146FCF7C4FA89
:103EC000A8802046FCF7B6FA01A90548FCF736FBA6
:103ED000074B1B680146002BA9D030469847A6E740
:103EE0001C0A0020B07B0000100900203C0A0020C2
:103EF00074080020B87B0000B47B00002DE9F04F6F
:103F000089B0002504460E4601929846049500E0CB
:103F1000013562680123D2F804902146002204A8EA
:103F2000C8470028F4D18DF80E00069085B381466D
:103F300082460BE09DF80E306768023BD7F804B06C
:103F4000D8479DF80E309A44554521D96068012321
:103F5000D0F804B00DF10E02214606A8D8476068DB
:103F60000123D0F804B00DF10F02214606A8D8476E
:103F70009DF80F30B3424FF00002214606A8D9D178
:103F8000019B4B4508D009F101095FFA89F9D1E796
:103F9000052009B0BDE8F08F129A9DF80E3013602D
:103FA00088F8003088F801606268023B556808F1C3
:103FB0000202A847002009B0BDE8F08F2DE9F047C4
:103FC000464982B00546082345484FF48472FCF701
:103FD0006BFA00286FD14348FEF76CFD044618B118
:103FE000204602B0BDE8F0873F49404A404B087088
:103FF00010600146482218603E4803F05FF83E48D2
:104000004822214603F05AF8002D5ED095E80700BB
:104010003A4B83E80700002002F08CFC00284FD1C7
:10402000374F3B7A002B55D0013BDBB207F10C0236
:104030004FF00309D7F804802F4C2E4D19FB0329AC
:1040400007F109067378CBB1B27806F1010C9444FC
:10405000013B5CFA83FC324412F8013B03F00F0190
:104060001B0604EBC10E05EBC10A18D444F83170ED
:104070009445D8F80030CEF80430EDD103364E45E3
:10408000E0D10B238DF80430D8F800301C4801A98A
:10409000984704460028A3D0FEF7A2FDA0E745F804
:1040A00031709445D8F80030CAF80430D4D10336C2
:1040B0004E45C7D1E5E70324204602B0BDE8F087AE
:1040C0008528ADD0FCF786F9AAE70C4BC3E900556B
:1040D0001D72A0E7D7F80480D3E700BF14090020C1
:1040E0001C0A0020413D0000400A00202C0A00204C
:1040F000300A002080080020C80800207408002032
:10410000EC7B000010B5FFF7CFF868B1FFF7D4F8EB
:10411000044648B9064802F021FC034628B1FCF7E2
:1041200059F92346184610BD0823184610BD00BF94
:10413000AC7B0000FEF75EBDFEF798BE4FF08043FB
:1041400003E0D3F83824D1072BD5D3F838249207CD
:10415000F7D530B583B0134801A9FCF7BDF9044683
:10416000E8B1114D286820600020FCF75BF90F4B87
:104170000F481B88026801339B1AE3800021FCF77B
:1041800063F9A0800020FCF755F901A90548FCF768
:10419000D5F9084B1B6801460BB12846984703B078
:1041A00030BD70471C0A0020D47B0000100900209D
:1041B0003C0A00207408002010B582B08223134806
:1041C0008DF8003001A9FCF787F9E8B104460098A2
:1041D00020600020FCF726F90D4B0E481B88026872
:1041E00001339B1AE3800021FCF72EF9A080002008
:1041F000FCF720F901A90548FCF7A0F9064B1B685C
:1042000001460BB16846984702B010BD1C0A002059
:10421000100900203C0A0020740800202DE9F0431A
:10422000077A83B0002F5DD007F1FF395FFA89F379
:1042300000F1090E00F10C024FF00309DFF8E4C0B1
:10424000DFF8E480714619FB03294E7800239E4273
:1042500001EB03021AD08C781557125D002D02F085
:104260000F0408DB5CF834200133002AEFD0112062
:1042700003B0BDE8F08302F00F02013358F832209A
:10428000002AF4D19E4201EB0302E4D103314945F7
:10429000DBD10026234C244D314601EB4101714412
:1042A0004B78DBB14FF0000C63468A780B449F5685
:1042B0009B5C002F03F00F0204EBC20705EBC20862
:1042C00022DB44F83200426812687A604A780CF1C6
:1042D000010C5FFA8CF39A42E7D8077A0136F1B203
:1042E000B942DAD3114A13681BB11A681368002B5C
:1042F000FBD1106043680B228DF804201B6801A9D4
:10430000984703B0BDE8F08345F832004268126870
:10431000C8F804204A780CF1010C5FFA8CF39A4239
:10432000C3D8DAE7C8080020800800202C0A002043
:10433000024B1878003818BF01207047380A002057
:10434000030710B5044604D52046BDE81040FFF72A
:104350001DB9FFF7A3FB2046FFF746FB2046BDE84B
:104360001040FFF713B900BFFFF77CB9014B186885
:10437000704700BF2C0A002030B50F4B1D68A5B157
:104380002C7AA4B100232A469C4603E05FFA83FC02
:1043900064450CD992F809E0864503F1010302F166
:1043A0000302F3D109B181F800C0284630BD2B6863
:1043B0001D68002DE4D1F8E72C0A0020436811465F
:1043C0001B68184700F00F03082B0AD802064CBFE1
:1043D000054A064A02EBC303186810B143681B681C
:1043E00018471020704700BF80080020C808002030
:1043F00038B5094B1C6864B1054602E023681C68A7
:104400003CB1636820461B68294698470628F5D0CA
:1044100038BD062038BD00BF2C0A002038B5044640
:104420000D46FFF7A3F818B1054B1B78022B01D0FE
:10443000082038BD29462046BDE83840FFF7DEB9E0
:10444000400A002038B504460D46FFF78FF818B132
:10445000054B1B78022B01D0082038BD2946204689
:10446000BDE83840FFF75ABA400A002070B54368EB
:104470009B6882B006460D46144623B1984706282D
:1044800001D002B070BD4CBB337AAB422BD9093698
:1044900005EB450535446E78EEB13246234606E01D
:1044A0000134FFF773F8E3B29E4214D96A789A4256
:1044B00016D9AB782A19D05C0307F1D40190FFF725
:1044C000EDFA0198FFF790FA01340198FFF75EF8D2
:1044D000E3B2B342EAD3002002B070BD0720D0E7B8
:1044E00000231B78FFDE6378FFDE00BF43681B6993
:1044F00003B11847184670472DE9F0432E4BD3F807
:10450000008083B0B8F1000F4CD098F80890B9F152
:10451000000F40D0002708F109053C4605E00137AF
:10452000FCB2A14505F1030535D9D8F804309B68E4
:104530002BB100222146404698470628EFD198F833
:104540000830A34231D96E78002EE8D000243246DC
:10455000234606E00134FFF719F8E3B29E42DED9A4
:104560006A78934224D2AB782A19D05C0307F1D43D
:104570000190FFF793FA0198FFF736FA013401989A
:10458000FFF704F8E3B2B342EAD30137FCB2A14526
:1045900005F10305C9D8D8F80030D3F80080B8F188
:1045A000000FB2D103B0BDE8F08300235B78FFDEDB
:1045B00000231B78FFDE00BF2C0A00202DE9F84302
:1045C0001E4B1F68002F34D097F80890B9F1000FE8
:1045D0002BD04FF0000807F1090544467B68DB68E3
:1045E00013B12146384698473B7AA34223D96E78C7
:1045F0009EB100243246234693420BD2AB782A194F
:104600000134D05CFFF72EF8E3B29E4205D96A78F8
:104610009342F3D300231B78FFDE08F101085FFA11
:1046200088F4A14505F10305D8D83B681F68002F21
:10463000CAD1BDE8F88300235B78FFDE2C0A002096
:1046400070B503780446852B00F2BF80DFE813F0D5
:10465000F801AA01BE0032025E02DC00E300BD00E8
:10466000FD0010012301BD00BD00BD00BD003601ED
:10467000BD00BD00BD00BD00BD00BD00BD00BD0052
:10468000BD00BD00BD00BD00BD00BD00BD00BD0042
:10469000BD00BD00BD00BD00BD00BD00BD00BD0032
:1046A000BD00BD00BD00BD00BD00BD00BD00BD0022
:1046B000BD00BD00BD00BD00BD00BD00BD00BD0012
:1046C000BD00BD00BD00BD00BD00BD00BD00BD0002
:1046D000BD00BD00BD00BD00BD00BD00BD00BD00F2
:1046E000BD00BD00BD00BD00BD00BD00BD00BD00E2
:1046F000BD00BD00BD00BD00BD00BD00BD00BD00D2
:10470000BD00BD00BD00BD00BD00BD00BD00BD00C1
:10471000BD00BD00BD00BD00BD00BD00BD00BD00B1
:10472000BD00BD00BD00BD00BD00BD00BD00BD00A1
:10473000BD00BD00BD00BD00BD00BD00BD00BD0091
:10474000BD00BD00BD00BD00BD00BD00BD00BD0081
:104750004A01860059011402DB01DC00884B8949BB
:10476000D3E900029047884B1C684CB1854D6368C3
:1047700020461B682946984723681C68002CF6D100
:10478000824C63680BB10D209847FFF717FF01F0CB
:10479000A7FB7F4B1B68002B00F0FB8101207D4DA8
:1047A000FEF76EFC2A78931EDBB2062B00F2138212
:1047B0007949CB5C13B102F00BF82A78022A40F059
:1047C0000A82FEF7A9FE01232B7070BD714D2A7875
:1047D000931EDBB2062B40F2C581082A01D1FEF7F9
:1047E0009BFE6A4B5B6803222A700BB1022098473C
:1047F000654B1D6845B16B6828461B682146984784
:104800002B681D68002DF6D15D4B2146D3E90002CF
:10481000BDE87040104790F902308278002BB4BF99
:104820005E4B574B02F00F0203EBC203D3E90002C9
:10483000214690470028C8D0A0780207C5D00307BA
:10484000C3D4BDE87040FFF7C3B8504B5B680BB1F1
:10485000082098474C4B1D68002DB6D06B68284641
:104860001B68214698472B681D68002DF6D1ACE7E0
:10487000464B5B680BB109209847434B1D68002DE0
:10488000A3D06B6828461B68214698472B681D6893
:10489000002DF6D199E73D4B5B680BB10A20984794
:1048A000394B1D68002D90D06B6828461B68214647
:1048B00098472B681D68002DF6D186E7334B5B685F
:1048C0000BB10F209847304B1D68002D3FF47DAF92
:1048D0006B6828461B68214698472B681D68002D89
:1048E000F6D172E72B4C2378062B00F0548103F0AD
:1048F000FD03052B7FF469AFFEF718FE022323703A
:1049000070BD244DFFF75AFEFEF7E2FB2A78931E96
:10491000DBB2062B31D82049CB5C13B101F058FF34
:104920002A78022A29D1FEF7F7FD174A14680023D6
:104930002B704CB11A4E636820461B68314698476D
:1049400023681C68002CF6D10D4B1549D3E90002F1
:1049500090470E4B5B680BB10E2098472B78023BBB
:10496000DBB2062B3FF631AF0B4AD35C002B3FF492
:104970002CAFBDE8704001F02BBF082AD5D1D2E79B
:10498000C8080020D07B00002C0A002074080020FA
:10499000300A0020400A0020A47B0000800800208C
:1049A000CC7B00009D4DFFF709FE01F08FFA2A78BD
:1049B000931EDBB2062B00F2DF809949CB5C002B03
:1049C00000F0DA80022A03D0082A01D0FEF7AEFDFB
:1049D000944B5B6802222A700BB101209847924BDE
:1049E0002146D3E900029047904B1D68002D3FF40B
:1049F000ECAE6B6828461B68214698472B681D68FB
:104A0000002DF6D170BD854D2B78032B00F0CC80A6
:104A1000FEF748FD00283FF4D8AE2A78931EDBB29B
:104A2000062B40F2F180824801F0A4FE2A78022A87
:104A300001D0082A01D1FEF76FFD06232B7070BD4F
:104A4000764B1B78032B00F0AB80082B00F0A8807E
:104A5000744B5B680BB100209847764B1D68002DA6
:104A60003FF4B3AE6B6828461B68214698472B6815
:104A70005D68002DF6D170BD684D2B78032B7FF457
:104A8000A4AEFEF723FC00283FF49FAE2A78931EC5
:104A9000DBB2062B00F2D4806149CB5C13B101F08C
:104AA00097FE2A78022A40F0CB80FEF735FD0423DA
:104AB0002B7070BD594D2A78082A62D0931EDBB244
:104AC000062B00F28C805649CB5C002B00F08780CF
:104AD000022A00F08D8005232B70524B5B680BB1CE
:104AE00003209847504B2146D3E9000290474F4B93
:104AF0001D68002D3FF469AE6B6828461B6821468F
:104B000098472B681D68002DF6D170BD454B5B683A
:104B10000BB103209847444B4749D3E90002904723
:104B2000424B1C684CB1444D636820461B682946C3
:104B3000984723681C68002CF6D1384D2B78062B3B
:104B400024D0082B0BD09A1ED2B2062A53D834494F
:104B50008A5C002A4FD0022B01D0FEF7E7FC02232B
:104B60002B7070BD2E49CB5C13B101F031FE2A7859
:104B7000022A3FF434AE30E62D4801F0FBFD2A78DE
:104B800020E702232B70FEF7DBFCA6E707232B7040
:104B900070BD207A03E6FEF7C9FC0823237070BDC0
:104BA0002648FFF74DFD53E7FEF790FB00283FF442
:104BB0002FAF2A78931EDBB2062B2BD81849CB5C7B
:104BC00013B101F005FE2A78022A23D1FEF7A4FCD6
:104BD00004232B701CE7082A7FF4F5ADF1E5144897
:104BE00001F0C8FD2B78022B02D0082B7FF473AFA5
:104BF000FEF792FC6FE70E4801F0BCFD2B78022B0C
:104C0000ADD0082BABD0A8E70549CB5C002B7FF4D7
:104C10000EAF08E7082ADBD1D8E700BF400A002022
:104C2000A47B000074080020C80800202C0A002083
:104C300018000020300A0020C47B0000C87B000060
:104C4000082A7FF434AF30E770B5284E82B034685C
:104C5000002301930CB3A588A5B1E388B3F5006FD9
:104C60003ABF5A1C92B2012205F1FF3528BF00233A
:104C700001A8E280A580ADF80630FFF7E1FC012035
:104C800002B070BD2046FFF7DBFC19491948FBF75D
:104C900097FC0120356002B070BD15491548FBF73F
:104CA0005DFC044630600028D5D1134B1B6813B956
:104CB000184602B070BDFBF7B5FB104A0E481388CA
:104CC000B3F5006F39BF5D1CADB20125234601214C
:104CD0001580ADF80630FBF7CDFB0020FBF7AAFBF3
:104CE00001A8FFF7ADFC0120CAE700BF440A00207D
:104CF000700800201C0A00203C0A00201009002037
:104D0000F0B5046891F808E0002C00F04884A4F2A3
:104D1000133CBCF17C0F00F28280BCF17C0F7ED88A
:104D2000DFE81CF0C900E602D1021B03480123039F
:104D3000F50214037D007D007D007D007D007D0077
:104D4000C00318027D007D007D007D007C037E0293
:104D50006D027D007D007D008203030381007D00E4
:104D60007D007D007D00BC03860281007D007D000A
:104D70007D007D007D007D00D0037D007D007D00F5
:104D80007D006B03960199027702CA027D007D00C7
:104D9000C302D802BC02090202027D007D00FB01B1
:104DA0002A035701A0037D007D00FC029403DF026B
:104DB000B603EE027D007D007D007D007D007D005C
:104DC0007D007D007D007D007D007D007D007D00FB
:104DD0007D007D007D007D007D005A03A0027D00E6
:104DE0007D007D000F017D007D007D007D00AE0314
:104DF0007D007D007D007D00A6037D007D007D009F
:104E00007D007D007D007F0350017D007D007D00E1
:104E10007D00B8007D007D007D007D00B80000238E
:104E200003601846F0BD002A00F0A68404791546F8
:104E30004FF0010C2C7000249C45047180F04C83D1
:104E40000CF1010412B1057902F80C50BD4D91F836
:104E500014C02D682E78B44500F04383BA4E6D78A7
:104E60003570BA4E4FF0000C86F800C0AC45C0F06B
:104E70002D83B74D95F800C00CF1010C5FFA8CFC46
:104E800085F800C0E64500F2398340F29A330360AA
:104E90000120F0BD012400250AB106795655AB4E1C
:104EA000A94D96F800C02D780CF1010C5FFA8CFC2E
:104EB00086F800C0DAE7002A00F0738404791470E1
:104EC000012B4FF00B04047140F2AE84032502263F
:104ED0000127D455B3420C7D047140F2D883945518
:104EE000AB424FF00204047140F2C28305F1010CA1
:104EF000545563454FF00204047140F2AA830CF14B
:104F0000010602F80C40B3424FF00204047140F273
:104F10008A83751C9455AB424E7E067140F27183B4
:104F20006C1C5655A3424FF00005057140F25F839B
:104F3000161901343570864D4FF0000C85F800C00D
:104F4000A0E7804C0125266800241AB190F804C01F
:104F500002F804C034780E7DA64200F0FA828E7DFD
:104F6000A64200F0AD834024AB42047140F2C182FE
:104F70006C1C002A00F0D98206795655A3424FF0E6
:104F80000005057140F2C1821619013435706D4D6E
:104F90000E7D2D682D78AE4200F0BC828E7DAE4233
:104FA0007FF47DAF0025A342057140F28A84254637
:104FB000013471E7002A00F04684047901264FF09D
:104FC000000C9EE7002A00F04B8405791646012468
:104FD000DCE7002A00F05784067994460124022574
:104FE000A3428CF80060057140F2BB822E46651C1E
:104FF0001655AB424FF00504047140F2CB822646B1
:1050000002EB050C6C1C2425A3428CF80060057192
:1050100040F2BB822E46651C1655AB424FF006048B
:10502000047140F2AD825619013534700E7D06715F
:10503000AB4240F2A0826C1C5655A3428D7D057197
:1050400040F294821619013435703E4D2D6805E703
:10505000002A00F0FA83047901264FF0000C02F8D0
:105060000C40B3424FF00004047140F20683751CFB
:105070009455AB424FF01004047140F2EF826E1C65
:105080005455B3424FF00104047140F2D1823519F6
:105090009455AB424FF00504047140F2B7826E1C88
:1050A0005455B3424FF02404047140F2A582751C9C
:1050B0009455AB424FF00104047140F293822E19D3
:1050C0005455B3424FF00304047140F28682751CBC
:1050D0009455AB428E7D067140F27A826C1C565517
:1050E000A3424FF00405057140F26D821619013498
:1050F0003570A3424FF02405057140F25F822E46C1
:10510000651C1655AB424FF00204047140F2518207
:10511000264602EB050C6C1C61E7002A00F0CD83EB
:10512000057916460124E3E7002A00F0C8830679D2
:1051300001240025D3E7002A00F0B083047901257B
:105140000026C5E74C0A0020480A00204A0A002031
:10515000490A0020002A00F09883047916460125A8
:1051600034700E7ABC4C2478B44280F0BC8304EBDB
:10517000440401F10906B94F16F804C080F804C0D0
:105180003444AB423C6040F27D826C1C002A00F04B
:10519000838206795655A3424FF00005057140F20F
:1051A000628204F1010C1555AC4C256863456C789E
:1051B000047140F2498202EB0C060CF1010C3470D0
:1051C0002C780D7DA54200F026828D7DA5427FF4CE
:1051D00032AE0A246345047140F27D830CF1010470
:1051E000002A00F07A82057902F80C50A3424FF0B1
:1051F0000005057140F2138304F1010C1FE0974C88
:105200002568002A00F02983047916464FF0010C26
:10521000D5E7002A00F03C830479012600252FE71A
:10522000002A00F03D8305794FF0010C0024BAE715
:10523000002A00F0318305794FF0010C0024155548
:1052400063454FF00004047140F2518202EB0C05FB
:105250000CF1010CEEE5002A00F02483047901250D
:10526000002605E7002A00F02683057994460124EC
:105270008CF80050794D2E68794D96F801C02D7844
:10528000AC4540F22D8396F802C03544A34215F890
:105290000C50057140F25881651C56E6002A00F05A
:1052A000D6820479012600250AE7002A00F0D1827F
:1052B000047901260025F3E6002A00F0DB82047958
:1052C00001250026E4E6002A00F0E48204790125A5
:1052D000002604E6002A00F0EA820479012500266F
:1052E000E6E6002A00F0C1820479164601259CE614
:1052F000002A00F0D9820479022501260027E8E57A
:10530000002A00F0BB820579164601249CE6002A9B
:1053100000F0CF8206790124002502E6002A00F081
:10532000A2820679944601246DE6002A00F0A48248
:1053300005794FF0010C002415559C454C7E0471F5
:1053400084D340F22F3303600120F0BD002A00F027
:105350008E82057916460124ECE5002A00F0918240
:1053600004794FF0010C0025C2E5002A00F0738299
:10537000047901250026CDE501250024002A40F00E
:105380009D810224AB42047140F213816C1C022502
:10539000A342057140F2E580651C0524AB4204710F
:1053A00040F2F8806C1C2425A342057140F2ED8088
:1053B000651C0624AB42047140F2E28001350C7D8D
:1053C0000471AB4240F2D7806C1C8D7D0571A34205
:1053D00040F2CC80013438E601260024002A00F097
:1053E0002C8105791555B3424FF00505057140F242
:1053F000A68002EB060C741C3AE74FF0010C002467
:10540000002A00F07981057915559C454FF0240458
:10541000047180F04E810CF1010620E60124002584
:10542000B4E601240025A4E501244FF0000C002A75
:1054300000F0E781057902F80C509C424FF002051C
:10544000057180F0A98104F1010C75E701250024A4
:10545000002AAED00679DFE5490A00204C0A002078
:105460004A0A002001250024002A96D00679BFE5CB
:1054700001250026002A3FF476AD0479945572E5A3
:1054800001250024002A3FF46EAD067916556AE521
:1054900001240025002A98D00679CDE501244FF09B
:1054A000000C9DE601250024002A00F069810679A0
:1054B0001655AB424FF00404047140F209815619AD
:1054C00001354DE601244FF0000CBBE40725A34253
:1054D00005712FD9661C81E740F23D33036001203E
:1054E000F0BD05259C42057180F0518104F1010C4D
:1054F00086E74FF4617303600120F0BD0925A342E4
:10550000057140F27981651CCEE740F28533036076
:105510000120F0BD0D6AA3422D7805713FF647AD1D
:1055200040F28A3303600120F0BDA3420271ECD93E
:1055300001342CE540F26E3303600120F0BD40F2EF
:105540006F3303600120F0BD40F27333036001202C
:10555000F0BD0324AB42047140F26B812C4601354F
:1055600090E740F2533303600120F0BD40F25A331C
:1055700003600120F0BD40F2593303600120F0BD0B
:105580004FF4567303600120F0BD40F257330360BF
:105590000120F0BD40F2563303600120F0BD082425
:1055A0000471002B7FF487AC40F2133303600120B9
:1055B000F0BD40F2523303600120F0BD40F25133A0
:1055C00003600120F0BD4FF4547303600120F0BD6F
:1055D00040F24D3303600120F0BD4FF4537303607C
:1055E0000120F0BD40F24B3303600120F0BD40F2DA
:1055F0001A3303600120F0BD40F24A3303600120FA
:10560000F0BD40F2193303600120F0BD40F2493390
:1056100003600120F0BD02246345047140F20E8155
:105620000CF1010403E74FF4467303600120F0BD61
:1056300040F2463303600120F0BD0524B3420471FB
:105640007FF67DAF741C15E640F22933036001201C
:10565000F0BD40F2173303600120F0BD40F2453346
:1056600003600120F0BD4FF44A7303600120F0BDD8
:1056700040F2163303600120F0BD4FF45173036014
:105680000120F0BD40F2273303600120F0BD40F25D
:10569000153303600120F0BDA3420271E3D9013448
:1056A000934D2D68A3426E780671CDD904F1010C9B
:1056B00086E540F2433303600120F0BD067920E522
:1056C0000224AB42047140F201812E460135D1E63D
:1056D00040F2223303600120F0BDA342027140F288
:1056E0009E8001340025A342057100F2948040F2AF
:1056F000363303600120F0BD24249C450471D8D2C8
:105700000CF101040025A3420571B6D9013410251E
:10571000A3420571A2D901340125A342057187D99D
:105720002C440525A34205717FF670AF0134242572
:10573000A34205717FF660AF01340125A3420571D4
:105740007FF650AF2C440325A34205717FF645AF89
:1057500001348D7D0571A3427FF63AAF01340425F3
:10576000A34205717FF62FAF01342425A3420571B2
:105770007FF624AF651C04E64FF0010CFFF75BBB1E
:105780000424AB420471A3D90E7A0135EAE440F255
:10579000423303600120F0BD40F22E33036001204C
:1057A000F0BD0B24012B04713ED9032402250E7D8C
:1057B0000671AB427FF66BAF0225A34205717FF6FF
:1057C00057AF01340225A34205717FF642AF013481
:1057D0000225A34205717FF626AF01344D7E057187
:1057E000A3427FF60EAF01340025A34205717FF678
:1057F000FEAE0134FFF79FBB40F22133036001206E
:10580000F0BD02259C420571C6D201344D7E057162
:10581000A3427FF696AD04F1010CFFF70CBB40F2FA
:10582000353303600120F0BD4FF445730360012060
:10583000F0BD4FF45E7303600120F0BD40F22D33E4
:1058400003600120F0BD0124C2E701245AE70124CE
:1058500079E701246BE70124C0E74FF0010CAFE4C6
:105860000124FFF794BB01249DE50125A7E5012450
:10587000FFF761BB012454E70124C7E70124FFF7C8
:10588000E4BB01249EE7012481E57646012569E415
:10589000012441E701248FE7012423E7012458E78D
:1058A0000124FDE6012432E7022401257FE70124DB
:1058B00043E7012498E70124DCE4012455E70124AF
:1058C0004DE740F28F3303600120F0BD40F27D339D
:1058D00003600120F0BD4FF44D7303600120F0BD63
:1058E00000231B78FFDE024A002313601B78FFDED3
:1058F0004C0A002078B910B504460868037B202BB9
:1059000001D0062010BD00F10E010722183001F071
:10591000C7FB204610BD0320704700BF4360CA6923
:105920009A4210D38A6910B40260C8690C6FC01A19
:105930001A44C8612344003818BF01205DF8044BA5
:105940008A610B67704701F12802026000208B67B3
:10595000704700BF2DE9F0470B7888B00C4605462C
:105960000E2B14D8DFE803F0081C0808130D2C13C5
:1059700013181308080808000024204608B0BDE8E2
:10598000F0874B78DA0934D15B09012B51D006241A
:10599000204608B0BDE8F087C3690BB103219847E2
:1059A0002B68002403F134022046C3E91E44C3E9F6
:1059B00020441C845C62DC625A6708B0BDE8F08752
:1059C000027A002A00F06381837A0930002B00F00C
:1059D0005C818B78E97A415C9942CDD01B061FD45B
:1059E000E77807F0FD03012BC6D0002F66D0032413
:1059F000C3E713F0600FC3F3411200F09580012A52
:105A0000C5D18B78212BC2D1B1F80720072ABED18E
:105A10000168601C183108B0BDE8F04700F06ABAB0
:105A2000E478002C00F0A080032C14BF0324002491
:105A3000A3E78B780668202B00F09E80222BA6D14E
:105A4000B1F80730002BA2D1B1F80330328C338487
:105A500003F0010702F00102BA428DD0C3691BB105
:105A6000C7F10301C9B29847002F85D12B7A012BCA
:105A700040F209816B7B05F10C08002B00F00181DD
:105A8000AB7B18F80300FCF713FF2B7A012B40F2D5
:105A9000FA806B7B012B40F2F480AB7B98443C4650
:105AA00098F80100FCF704FF06F13403C6E91E77FD
:105AB000C6E920777762F76273675EE72E68012A8E
:105AC00006F10C0100F0DF806A7B012A05F10C036E
:105AD00040F2D780AA7B069113446E4A0592B46ABD
