:020000022000DC
:1070000000000420BD720200E5720200E772020077
:10701000E9720200EB720200ED7202000000000053
:10702000000000000000000000000000EF720200FD
:10703000F172020000000000F3720200F57202001B
:10704000F77202006D800200F1740200F772020014
:10705000F7720200F7720200F7720200F772020084
:10706000D57602002D770200F7720200F772020057
:10707000F7720200E98B0200F7720200F772020059
:10708000F7720200F7720200F7720200F772020054
:1070900035840200F7720200F7720200F7720200F4
:1070A000F7720200F7720200F7720200F772020034
:1070B000F7720200F77202000000000000000000FA
:1070C000F7720200F7720200F7720200F772020014
:1070D000F7720200F7720200F7720200F772020004
:1070E000F7720200F7720200F7720200000000005F
:1070F00000000000F772020000000000F7720200BA
:10710000000000000000000000000000000000007F
:10711000000000000000000000000000000000006F
:10712000000000000000000000000000000000005F
:10713000000000000000000000000000000000004F
:10714000000000000000000000000000000000003F
:10715000000000000000000000000000000000002F
:10716000000000000000000000000000000000001F
:10717000000000000000000000000000000000000F
:1071800000000000000000000000000000000000FF
:1071900000000000000000000000000000000000EF
:1071A00000000000000000000000000000000000DF
:1071B00000000000000000000000000000000000CF
:1071C00000000000000000000000000000000000BF
:1071D00000000000000000000000000000000000AF
:1071E000000000000000000000000000000000009F
:1071F000000000000000000000000000000000008F
:1072000010B5054C237833B9044B13B10448AFF3E0
:1072100000800123237010BDB02300200000000077
:10722000BC94020008B5034B1BB103490348AFF3FC
:10723000008008BD00000000B4230020BC940200C0
:10724000A3F5803A704700BF174B002B08BF134BC4
:107250009D46FFF7F5FF00218B460F461348144A61
:10726000121A02F0E3F80E4B002B00D098470D4B9A
:10727000002B00D098470020002104000D000D488D
:10728000002802D00C48AFF3008002F09DF82000E7
:10729000290001F03FFE02F083F800BF0000080063
:1072A000000000000000000000000420B0230020C7
:1072B0005828002000000000000000000649074A8E
:1072C000074B9B1A03DD043BC858D050FBDC00F091
:1072D00059FAFFF7B9FF0000DC94020000230020F8
:1072E000B0230020FEE7FEE7FEE7FEE7FEE7FEE74D
:1072F000FEE7FEE7FEE7FEE7064B1A5C1F2A86BFA5
:10730000054902F01F024FF0A04101239340C1F84C
:107310000C3570475894020000030050064B1A5C6D
:107320001F2A86BF054902F01F024FF0A04101232A
:107330009340C1F80835704758940200000300508C
:107340004FF0A04310B44FF4807240240749C3F8B3
:1073500008454FF40070C3F808254FF48052C1F877
:107360000805C3F808255DF8044B7047000300507A
:107370000A4B185C1F288ABF09494FF0A04100F052
:107380001F00D1F804350122824022EA0300134095
:10739000C1F80805C1F80C35704700BF58940200C9
:1073A00000030050C30706D4830742BF2F4B0C22B3
:1073B000C3F81827704710B44FF08043D3F8403615
:1073C000DA0723D44FF0A043284903224024C3F80E
:1073D0001827C3F82027C1F82427C3F83027C3F89B
:1073E00008454FF400724FF48074C3F80845C1F8A3
:1073F00008254FF480528107C3F8082503D51B4B9D
:107400000C22C3F818275DF8044B70474FF0102387
:10741000D3F8043303F00703072BD3D1144A012315
:10742000C2F80435D2F80034002BFBD04FF0102105
:107430000020D1F804330E4C23F0070343F004037B
:10744000C1F80433C2F80405D4F80034002BFBD093
:10745000BFF34F8F0749084BCA6802F4E062134339
:10746000CB60BFF34F8F00BFFDE700BF00030050AC
:1074700000E0014000ED00E00400FA0500B585B031
:107480000346002101AA44F20100CDE90111039352
:1074900000F004F805B05DF804FB00BF72B6094BBC
:1074A000D3F8F030DB0700D500BEBFF34F8F05499E
:1074B000054BCA6802F4E0621343CB60BFF34F8F01
:1074C00000BFFDE700ED00E00400FA0572B6024AD5
:1074D0001368013313607047CC230020034A1368FC
:1074E000013B136003B962B6704700BFCC23002094
:1074F000014B1B68184700BFD02300202DE9F04145
:1075000090F804E03B4F0EEB4E0307EB83059C0025
:107510002B7A82B0002B68D13A514A686A6042796E
:107520004FEA4E0882B11A461E469B00046803F5D6
:10753000A07C013244F80C6054F80C504479019559
:10754000D3B29C42019DF0D80268CB7842F3073455
:10755000002C4FEA123241DB04F160445B0104F578
:107560006144DBB284F80033026842F30733002B36
:107570004FEA123409DB204D5B09012204F01F049D
:1075800002FA04F445F823400268D2F804554B7817
:1075900025F0030503F003032B43C2F80435056807
:1075A0008B78D5F8082503F0030322F00302134378
:1075B000C5F8083500680B78D0F81025C64422F0CD
:1075C0000F0203F00F0307EB8E0713430124C0F8EB
:1075D000103500203C7202B0BDE8F081074C02F08B
:1075E0000F025B01DBB2A354BEE7082002B0BDE886
:1075F000F08100BFD823002000E100E014ED00E09E
:107600000368054A01211960037903EB430302EB88
:107610008303022119727047D82300200368054AAA
:1076200001211961037903EB430302EB8303197210
:10763000704700BFD82300200379064A03EB4303B9
:1076400002EB8303187AA0F10200B0FA80F040093F
:10765000704700BFD8230020036801221A607047DA
:10766000036801225A60704703680122DA6070479C
:10767000F0B4056840F2011404FA01FCD5F80042A8
:1076800024EA0C04C5F80042056882B0D5F80072FF
:107690009DF818604FF480343B438C40C5F80032AD
:1076A0009EB18B00056803F5A0730026EE50EB58E1
:1076B00001930368019DC3F80443036801F5A871B1
:1076C00043F8212002B0F0BC70470368C3F80843B8
:1076D000F3E700BF2DE9F041114D124FDFF848806C
:1076E00082B000244FF480362B6806FA04F201348D
:1076F0007BB1D7F80433A5F500401A424FF00001E2
:1077000080B206D029602B680193D8E90031019A34
:107710009847042C05F10405E6D102B0BDE8F081DC
:107720004081004000800040D82300202DE9F04136
:10773000114D124FDFF8488082B000244FF480369C
:107740002B6806FA04F201347BB1D7F8043305F54F
:10775000E0401A424FF0000180B206D029602B6849
:107760000193D8E90331019A9847042C05F10405E7
:10777000E6D102B0BDE8F0814091004000900040A9
:10778000D823002010B44FF08053D3F83021082ABA
:1077900023D0844AD2F8883043F47003C2F888308A
:1077A000BFF34F8FBFF36F8F4FF08053D3F830216B
:1077B000082A00F0B3804FF01023D3F80022002AEB
:1077C000C0F2BF80D3F80432002BC0F2BA80764BEF
:1077D000764A1A605DF8044B70474FF080410020F4
:1077E000C1F80C01724AC1F81001C1F83805D3F88C
:1077F0000414C2F82015D3F80814C2F82415D3F8DD
:107800000C14C2F82815D3F81014C2F82C15D3F8AC
:107810001414C2F83015D3F81814C2F83415D3F87C
:107820001C14C2F84015D3F82014C2F84415D3F83C
:107830002414C2F84815D3F82814C2F84C15D3F80C
:107840002C14C2F85015D3F83014C2F85415D3F8DC
:107850003414C2F86015D3F83814C2F86415D3F89C
:107860003C14C2F86815D3F84014C2F86C15D3F86C
:107870003411D3F84434C2F87035052942D84D4B41
:107880005B5C1BB14C4B4D4AC3F88C264C4B5B5C8C
:1078900073B14FF080534B49D3F83021FB20C1F82E
:1078A0001805082AD3F834117FF473AF052929D8B5
:1078B000454B5B5CBBB14FF080524FF08040D2F83B
:1078C0005832D0F8E41ED2F8304121F00F0103F015
:1078D0000F030B43C0F8E43E082CD2F834117FF4B8
:1078E00058AF05290ED8394B5B5C5BB14FF0805324
:1078F000374AD3F830314FF40071082BC2F84016E4
:107900007FF447AF4FF08043D3F80024D2077FF5D0
:1079100040AF6FF00102C3F800243AE7D3F83431E6
:10792000052B08D94FF010224FF08043D2F80822DF
:10793000C3F858253FE7274AD35C002B3FF43BAF01
:10794000F0E7254A0123C2F80435D2F80034002BB1
:10795000FBD04FF0102312211F4AC3F80012D2F8B7
:107960000034002BFBD04FF0102312211A4AC3F829
:107970000412D2F80034002BFBD000231649C2F8C1
:107980000435D1F80034002BFBD0BFF34F8F0549ED
:10799000124BCA6802F4E0621343CB60BFF34F8F0F
:1079A00000BFFDE700ED00E0002300200090D003C1
:1079B00000C0004064940200005000404881030071
:1079C0006494020000F00040649402006494020099
:1079D000009002405C94020000E001400400FA05BF
:1079E000064A074B527C07490748C1F81405013A7B
:1079F00043EA0243C1F81835704700BF0423002052
:107A0000200000010010004006000300074B084959
:107A10005B7C5A1E40EA024242EA002343F0807334
:107A2000044AC1F81425C1F8183570470423002012
:107A3000001000400001010038B5184B18481B68C1
:107A40001849C0F800328A89174C184B2468C3F8CB
:107A50004045823AC3F84425154C00220125DD60DB
:107A6000C3F84021C3F844214FF4E053C4F804356F
:107A70004FF40053C4F80835C0F80C21087810B949
:107A80000C4B1B689847064A0B490C4B0C4CC2F830
:107A900004450C48086003221A7038BD18230020E2
:107AA0000010004070240020B827002000A00040F3
:107AB00000F00140C4270020C027002098240020A7
:107AC000FC2500209D7C0200F8B5214CA36A072B01
:107AD0002CD8204B1A78012A06460D4628D11E4F75
:107AE0003A78202A22D8236A54F8230002701B49CE
:107AF000053001F08DFC226A194854F822104E70AE
:107B00007B78D0F8480588700132DB4303F001032D
:107B1000072ACB7084BF00232362A36A0D714FF044
:107B20000100034498BF2262A362F8BD0020F8BDA3
:107B30005A782AB9236A084F54F823000270D6E70E
:107B4000216ADA7C54F82100034F0270CFE700BFAE
:107B5000A824002070240020FC250020FE25002001
:107B600000100040F8B53E4B3E4F596A3E4A3F4E2A
:107B70003D7853F82110316001231360002D30D07F
:107B80009D420FD1CB7813B13A7D002A4DD10879AF
:107B9000374C0A782270B3FA83F35B0943EA400357
:107BA000637028E0324C334B4A78C3F82C254A786E
:107BB000314D3248ED7C012101FA02F2C3F8302543
:107BC0000222C3F80855C3F80445C0F880210260BA
:107BD0000022C3F80421C3F80821C3F8102119605A
:107BE000F8BD274B08781B68214C984733686570AF
:107BF00019461B79237011F8052BA01C01F008FC15
:107C0000204B1C4A1B68F9891F4843F00803C2F83F
:107C100000321123C2F804331C4B1D4A19601D4B5E
:107C20001060022231681A70BDE70B79104C0A7897
:107C300022705B00637011F8052BA01C01F0E8FBBB
:107C4000104A0C4B1268C3F800221022C3F8042318
:107C50000F4B114A1A600F4B31681D70A3E700BF2C
:107C6000402600207024002094240020BC270020FF
:107C700094270020001000400423002000E100E0D1
:107C8000C427002018230020397A0200A4240020F1
:107C9000C027002098240020457E0200F8B5574AEE
:107CA000574B4FF4E051C2F80815D3F80C1111B13D
:107CB000D3F8001441BB534A1368591E1160002BBE
:107CC00074D0514B4E4C1B68504A514D43F0080341
:107CD000C4F8003212684F4B10781B6898474E4822
:107CE000C4F804554D4A4E4D05604E4B43490220A1
:107CF000107001224FF400501A60C1F80405D3F847
:107D0000443103B12260F8BD474C21780029D2D11B
:107D10004448464E464F012505614FF40050C2F8D5
:107D2000080532682A433260364A1568414A10789D
:107D3000FA89521B404D01322A6000285BD03F4D2A
:107D4000AA6A52B33E484FF0020CC0F880C0BFF39D
:107D50004F8FBFF36F8F6A6A0132072A98BF1146AF
:107D6000AA6A6962013AAA62C0F800C03A78002A99
:107D700036D02278002A33D0D3F82C056178C0B2EF
:107D80004908FFF7A1FE58B33268AB6A42F004021B
:107D9000326013B13B7C012B24D12049284B0020B9
:107DA0004FF480120870C3F80021F8BD204A1D4C22
:107DB000D28912492048012525614FF40054C1F8A9
:107DC00008452A44194902600A68144C1C4842F0CC
:107DD00002020A6023704FF48013C0F80031F8BD2E
:107DE000AB6AD6E7164B4FF48012C3F80021BDE80A
:107DF000F840FFF7B7BE114B9B6ACAE700F001409D
:107E000000100040A424002018230020BC270020DC
:107E100094270020C4270020C02700209824002099
:107E2000397A020000A00040FC25002090240020A8
:107E30007024002088240020942400204026002064
:107E400000E100E0184A19491368097843F001037A
:107E50001360174BB1B19A6AEAB1164A0221C2F80F
:107E60008010BFF34F8FBFF36F8FD3E90921013229
:107E7000072A01F1FF3188BF002299625A620D4A38
:107E8000022111609B6A33B10A4B4FF48012C3F890
:107E90000021FFF767BE0849064B00204FF480120F
:107EA0000870C3F800217047902400208824002027
:107EB0004026002000E100E0982400202DE9F8434E
:107EC0004D4CD4F80054002D60D04C4B9B6A072BCE
:107ED0007CD8D4F808344A4DD4F80C1435F8232053
:107EE000DFF8348191422ED098F801200127FA4022
:107EF0004FEA830905EB09013F4C8A70414ED4F8E3
:107F00000C2425F823203368C4F800323E4BD87C7B
:107F10003E4B1B6898470023C4F80485C4F8103111
:107F200001232361D4F81031002BFBD00023C4F8C7
:107F30001031336843F00403C4F800320123636056
:107F400087B9BDE8F88305EB830098F801108078C5
:107F5000B0EB510F4FEA510214BF012700274FEA3F
:107F60008309C7E7D4F808044D44C0B2A978FFF7E5
:107F7000ABFD0028E5D0264A264913684FF480104F
:107F800043F004031360C1F80001DAE71D4E1E4AF6
:107F90003368C4F800321D4BD07C1B6898471E4ADA
:107FA000C4F804250123C4F810512361D4F810311A
:107FB000002BFBD00023C4F810313368012243F0BA
:107FC0000403C4F800326260BDE8F8830D4E0E4A27
:107FD00031680E4BC4F800121B68D07C98470E49DC
:107FE000C4F8041500220123C4F810212361D4F839
:107FF0001031002BFBD0DDE700100040A82400204A
:10800000202600201823002070240020C4270020F0
:108010009024002000E100E0FC250020104B1B789C
:10802000DBB1104B9A6AAAB10F4A0221C2F8801044
:10803000BFF34F8FBFF36F8FD3E909210132072AB6
:1080400088BF0022013999625A62074B02221A60E6
:10805000002070474FF4807070470820704700BFC1
:10806000882400204026002000E100E0124BD3F8D5
:10807000002132B1D3F80423D00744BF0022C3F853
:1080800000210D4BD3F80C2132B1D3F80423110792
:1080900044BF0022C3F80C21074BD3F8102152B182
:1080A000D3F80423D20606D5044A0021C3F81011E0
:1080B000136803B11847704700100040C027002024
:1080C000002800F06F812DE9F84FB74F3B78054647
:1080D0003BB3B649B64BB74A00244FF47050C1F8D1
:1080E00008051C70B44B1462C2E9094421462022E1
:1080F000B2489C62C3E908443C7001F097F9082239
:108100002146AF4801F092F9AE4B4FF48012C3F80C
:108110008020BFF34F8FBFF36F8FAB4B0322C3F8A9
:108120000022AA4CAA4B6A681A60294618222046E7
:1081300001F06EF9A74BA14800212022196001F03F
:1081400075F9082200219E4801F070F99E4A237AB1
:10815000A17AC2F80C15C2F81035042B40D8DFE81C
:1081600003F0033B3F033B009B4A49231360136822
:10817000A1893E33994218D213683E330125A38169
:108180002378B3B1012B18D1944A954B1360627ACE
:10819000012A00F0FD80022A26D0002A00F0EF809C
:1081A000E07C98470720BDE8F88F23780125002B55
:1081B000E8D18A4A8B4B1360E9E7657A874B012D3A
:1081C00000F0E480022D0DD0002D00F0D780E07C7F
:1081D0001B6898470720E6E77F4A30231360C6E70D
:1081E0000025CDE71B680025774A7F494FF6FF70D1
:1081F000C2F83C05C2F838150222DFF8CC81C8F875
:108200003425E07C9847002DCCD0784E69496A4AE5
:10821000774DDFF8F091DFF8F0E1DFF890C106F17B
:10822000250A4FF0E7334A36C8F81C358E602536EC
:10823000704BCE6025360E6125360020C1F804A0B3
:10824000C3F80CA04E6106F14A0A06F1250B4FF067
:108250004336C1E90800C2E90800886218719860D5
:10826000187458619062C1F818B0C1F81CA0C8F821
:108270002065614EC8F82465604EC8F828656FF423
:10828000817656440E6005F12501516005F14A01E1
:10829000916005F16F01D16005F19401116105F163
:1082A000B9011E6015605161AAF1B90605F1DE0140
:1082B00005F203159161D5619E6125365E62253612
:1082C0001E63C3F848B0C3F854A04FF0000B4FF042
:1082D000000A0421253640F20222DE631877186274
:1082E00083F82800D86283F83400986383F840004C
:1082F000586483F84C00186583F85800D865C9E9BC
:1083000000ABCEF81015C9E902ABCEF80805CEF8DF
:1083100000223B4ACCF860250A44CCF864E5CCF84E
:10832000682502F50F420C32CCF86C2502F59872E4
:10833000CCF87025A2F51142303ACCF8742502F53C
:1083400011423432CCF87825CCF87C85C9E904ABED
:10835000C9E906AB617CA27C1A4B49015201C9B242
:10836000D2B283F8011383F814234FF480121A60F9
:108370000F4A012310703B70BDE8F88F1B6812494B
:108380000022C1F83C25C1F8382536E71B680025D6
:108390000D4AFF21C2F83C1540F20711C2F838150A
:1083A00001222AE70E2070478824002000F00140B7
:1083B0009824002040260020A82400202026002009
:1083C0009C24002000E100E0001000407024002008
:1083D0008C24002090240020B8270020C4270020EF
:1083E000E17902000D7A0200211001006C260020C4
:1083F000D4240020F0230020E743C323A363E31326
:10840000001100405024002000A00040074A1378CB
:1084100003F0FF013BB9064B4FF47050C3F8080559
:108420000846117070471120704700BF9824002043
:1084300000F0014030B5174B174A1B78126883B023
:1084400001922BB3154B0222C3F88020BFF34F8F4C
:10845000BFF36F8F124900200D6808601A60114C3D
:108460002368ABB1E90703D58DF80000684698474B
:10847000AA0705D5012223688DF800206846984791
:108480006B0705D5022223688DF8002068469847BF
:1084900003B030BD882400209424002000E100E0D7
:1084A000902400208C2400202DE9F843654B1B7894
:1084B000002B59D00446002800F0AD8003785A1EE6
:1084C0001F2A4ED8604D2A78002A47D05F4EB36AE3
:1084D000072B6FD86378072B66D85D4B0222C3F851
:1084E0008020BFF34F8FBFF36F8F6F78002F3ED088
:1084F000584F3B79002B60D03B7C002B00F09080E4
:108500003B7F002B00F08F8097F82830002B00F085
:108510008C8097F83430002B00F08A8097F8403038
:10852000002B00F0888097F84C30002B00F08680FC
:1085300097F858304FF00708002B3FD0444B0222E9
:108540001A6068782B7C184331D1434B1B7803F0B9
:10855000FF043BB9FFF706FB204603E0EA7C9A42A2
:10856000B4D20920BDE8F8830820BDE8F883336A57
:10857000252256F82300214600F04AFF607837494B
:10858000336A0A5C013202F003020A546278895CA1
:10859000B26A0132B26256F823200133072B98BF2A
:1085A0001F4611713762C9E70720BDE8F883002034
:1085B000BDE8F8830420BDE8F883984608EB480836
:1085C0004FEA880907EB8808012388F80430002364
:1085D00057F80900C8F808302522214600F018FF96
:1085E0001E4A617857F80970535C1D48013303F047
:1085F000030353546378D35C3B71627850F82230A4
:108600005BB11A469B68002BFBD1C2F80880B36AA5
:108610000133B36292E70E20A4E740F82280F6E728
:108620004FF00108CAE79046C8E74FF00308C5E7D6
:108630004FF00408C2E74FF00508BFE74FF0060807
:10864000BCE700BF882400207024002040260020C2
:1086500000E100E0F0230020982400209C2400206A
:10866000502400201A4B1B7873B378B310B5194C03
:10867000A36A3BB3184B0222C3F88020BFF34F8F8D
:10868000BFF36F8F636A54F823100A7802704B7837
:10869000437091F9023083700B790371CB78C3700A
:1086A0000531053000F0B4FE636A0133072B88BF43
:1086B00000236362A36A013BA362074B02221A6094
:1086C000002010BD052010BD082070470E20704707
:1086D00088240020A824002000E100E02DE9F041DA
:1086E000484C2378002B38D1474B9A6A002A30D067
:1086F000DFF84881596A454A454F98F8006053F8B9
:108700002110396001231360002E3DD09E4227D0F6
:10871000404D414B4A78C3F82C254A783F4C40489D
:10872000E47C012101FA02F2C3F830250222C3F8E9
:108730000845C3F80455C0F8802102600022C3F840
:108740000421C3F80821C3F8102119601046BDE8C0
:10875000F0814FF48070BDE8F0811120BDE8F08118
:10876000CB781BB198F81420002A31D10A79294D11
:10877000B3FA83F35B0943EA42030A782A706B7009
:1087800011F8052BA81C0CE0264B08781B68214D1E
:1087900098473B686E7019461B792B7011F8052BB2
:1087A000A81C00F035FE204B1B4A1B68B8F80E00D1
:1087B0001E4943F00803C2F8003211261C4BC2F8D0
:1087C00004631C4A1A600223086039682370A0E71A
:1087D0000B79104D0A782A705B006B7011F8052B2D
:1087E000A81C00F015FE104B1A680B4B1021C3F8A3
:1087F00000220F4AC3F804130F4B39682670136028
:1088000087E700BF98240020402600209424002001
:10881000BC270020942700200010004004230020E3
:1088200000E100E0C427002018230020A424002039
:10883000C0270020397A0200457E02007024002003
:108840001B490B788BBB03F0FF021A4B30B44FF07F
:10885000FF30C3F808031848184CC3F8102104600F
:108860001748184C0068102540F00400C3F80002B7
:10887000C3F8045304200870A07C1349E47CC3F8B7
:1088800030051248C3F80845C3F804050220C1F8B2
:10889000800108600121C3F80421C3F80821C3F84E
:1088A00010215960104630BC70471120704700BF3E
:1088B0009824002000100040C0270020BD7E020048
:1088C000182300200423002000E100E0FC25002004
:1088D00010490B78042B05D00B78052B02D040F201
:1088E000011070470C4A10B400234FF0FF300B4CBE
:1088F000C2F80032C2F8080301202360C2F8103128
:108900001061D2F81031002BFBD0002008705DF808
:10891000044B70479824002000100040C02700201E
:10892000094B1B7873B1094A0221C2F88010BFF3CA
:108930004F8FBFF36F8F064B00209862C3E908008A
:1089400011607047082070478824002000E100E093
:10895000402600200D4B1B78ABB170B50C4D0226A4
:10896000C5F88060BFF34F8FBFF36F8F094B0A4884
:10897000002420222146C3E908449C6200F056FDF1
:108980002E60204670BD0820704700BF882400205C
:1089900000E100E0A82400202026002038B50C4B80
:1089A0001B7883B9014680B10A4D0422284603F0A2
:1089B000FF0400F02DFD2B6893FAA3F3064AC2F8DA
:1089C0001C35204638BD112038BD0E2038BD00BFF3
:1089D00098240020042300200010004038B50C4BE0
:1089E0001B7883B9014680B10A4D0422A81803F010
:1089F000FF0400F00DFD6B6893FAA3F3064AC2F87A
:108A00002035204638BD112038BD0E2038BD00BFAE
:108A1000982400200423002000100040154B1B78F0
:108A200023BB28B3082970B50C461DD8124E0A4640
:108A3000014606F1080003F0FF0500F0E9FCC4F16F
:108A40000803FF221A413474B368B27493FAA3F393
:108A50000A491ABAF368C1F8242593FAA3F31BBA9A
:108A6000C1F82835284670BD072070BD1120704719
:108A70000E2070479824002004230020001000409E
:108A8000074B1A78034602F0FF0022B9642B04D882
:108A9000044AD3747047112070470720704700BF05
:108AA000982400200423002000B583B003460DF174
:108AB000070108488DF8073000F0B8F8054800F0C5
:108AC000A7F810B903B05DF804FB00F085F803B017
:108AD0005DF804FBC094020038B50E4D2A78AAB99F
:108AE0000D4A0E490346002B08BF134628461B8833
:108AF00020F8013F00F02EF8044608B1204638BDAA
:108B000000F058F801232B70204638BD85242046FC
:108B100038BD00BF182800206C940200A98A02000A
:108B200010B50446024800F03DF9207010BD00BFAA
:108B3000C094020000B50A4683B00146044800F024
:108B4000E1F8019000F036F8019803B05DF804FBFD
:108B5000C0940200134A137813BB10B40378124C6C
:108B6000DB07216006D51149D1F8043543F0010334
:108B7000C1F804350D4C0E49D4F8003223F001033E
:108B8000C4F8003243785B01DBB281F80D334FF457
:108B900000530B600123137000205DF8044B7047F5
:108BA00085207047202800201C28002000D000408D
:108BB00000E100E0074B0022C3F8002182B0D3F8A7
:108BC0000021019201990122C3F804231A6002B026
:108BD000704700BF00D00040024B0122C3F80823B9
:108BE0005A60704700D00040074B0022C3F80021B4
:108BF00082B0D3F800210192019A044AD3F8080503
:108C00001368C0B202B0184700D000401C280020F2
:108C10000368826818685B68934234BF013300239D
:108C2000C01AB0FA80F04009704700BF70B5044622
:108C300000200D46FEF74AFC2368A16818685A68B0
:108C40008A4234BF01320022904212D058685A68DA
:108C500091420BD800225A60E268531E072B19D8A4
:108C6000DFE803F0433E18391818183101325A6012
:108C7000F2E7227C002A3FD158685E68B14238D8BA
:108C80005A602268A16813688B4234BF0133002305
:108C90001360E1E76368294600FB023000F0B8FB8F
:108CA0002268136851688B4282BFA068013009189E
:108CB000CB1A9168994238BF936000240020FEF7D8
:108CC0000DFC204670BD636895ED007B03EBC00092
:108CD00080ED007BE4E763682A6843F82020DFE743
:108CE00063682A8823F81020DAE763682A781A5420
:108CF000D6E701365E60C4E704240020FEF7EEFBF1
:108D0000204670BD2DE9F041144612B92046BDE859
:108D1000F081054600200E46FEF7D8FB2A6813684E
:108D20005068834209D8C31A9C420CD905240020FC
:108D3000FEF7D4FB2046BDE8F081A968013101446B
:108D4000CB1A9C42F2D8176813685268696893423C
:108D500084BFAA680132D31AEA689C4202FB071159
:108D60000DD804FB02F2304600F052FBAA682B68D3
:108D70003C44944288BF00241C600024D7E703FBD6
:108D800002F842463046E71A00F042FBEA6869689A
:108D900006EB080007FB02F200F03AFB2B68002408
:108DA0001F60C4E738B505460020FEF78FFB2A6830
:108DB00013685268934205D8D41A0020FEF78EFB40
:108DC000204638BDAC6801341444E41A0020FEF794
:108DD00085FB204638BD00BF014B01221A70704749
:108DE0001E230020B0F5A07F09D10549054A0B7864
:108DF00001335BB20B70138801331BB213807047D1
:108E00005528002026280020F8B50078012803D036
:108E100002280ED040B3F8BD0220FEF76DFA002004
:108E2000FEF77CFAFFF77CFD164A138801331BB26C
:108E30001380154C154D164F2046FFF713FC0028E4
:108E4000E9D1A2792B689A42F6D16678012EF3D146
:108E5000FFF73EFDE0792860FFF712FE3846FEF787
:108E6000DDFB0C4B1E70E7E7FEF746FA0220FEF72B
:108E700055FAFFF755FD084A138801331BB21380DA
:108E8000F8BD00BF24280020302800202C28002016
:108E90009C9402001F23002028280020F0B51A4BC4
:108EA0001A4C1B4E93E803008BB04FF0E7324FF0A3
:108EB000C23302AD85E80300CDE900230FCC0DF1EC
:108EC000100CACE80F0094E803004FF0010E8CE8A2
:108ED0000300B42704A8079705968DF820E0FFF754
:108EE000EFF808B10BB0F0BD6846FFF757FD00285A
:108EF000F8D101A8FFF772FD0028F3D10821284618
:108F0000FFF78CFD0BB0F0BD709402007C94020062
:108F1000098E02002DE9F04F4FF0A0430322C3F861
:108F2000202789B0C3F824270120C3F82827C3F8D5
:108F30002C27C3F83027C3F83427C3F83827C3F8E1
:108F40003C27FEF72FFA4FF0804200210123C2F8A0
:108F500000111360D2F80031002BFBD0FFF79EFF09
:108F6000002840F00182B84CB84A94E803000DF1A3
:108F7000100989E80300B6484946FEF7BFFA002801
:108F800040F0FB81B34AB248D2F8102501234FF4D8
:108F9000C851D2B221FA02F200930021FEF768FB19
:108FA00094E80300042389E80300AB4AAB488DF83A
:108FB00010304946FEF7A2FA002840F0DB81A84BAA
:108FC000A849D3F81025A5480123D2B221FA02F20C
:108FD00000931946FEF74CFB0020FFF77DFD0028AB
:108FE00040F0C581A04FA14DA14EA24C0DF10B0048
:108FF000FFF796FD9DF80B10102928BF1021484659
:10900000FFF798FD002840F079819DF810309A4ACA
:1090100082FB03026521120901FB123364338F487E
:109020000393FEF7EDFA3B78002B6ED0DFF82CA20D
:109030004FF0000B2378002BFCD05046FEF710FBBE
:109040004FF000085046FEF70FFB84F80080FFF752
:109050003FFCFFF77FFCFEF7E1FF884B83481B785E
:10906000AB71802385F80380EB71FFF71DFA0028B0
:1090700040F047812B7A01332B72FFF72FFB804B97
:109080000BF1010BA3FB0B2323F0030808EB930860
:10909000BBEB080800F006817A4BA3FB0B237A4A4E
:1090A0004FEA9B08DB08A2FB0828C3EB03134FEA37
:1090B0009808C8EB4818ABEB0303ABEB8808002B10
:1090C00000F08D80B8F1000F10D1BBF13E0F0DDD27
:1090D000039A4FF4FA7302FB03F33BB16B4B4FF46B
:1090E000FA4002FB00F043F001039847FFF78EF9C6
:1090F000FFF716FCFFF7A4FB0120FEF739F95046F5
:10910000FEF7AAFA3B78002B94D1DFF844814FF0A8
:10911000010B4046FEF790FA002840D097F800A0D7
:10912000BAF1000F3BD10120FEF7F8F8584B594A2D
:109130001B8812881BB212B2B3EB021F6ADC3378B1
:10914000272B7ED033785AB2002B00F0D480012A2E
:1091500005D1FFF75BF9FFF7E3FBFFF771FB33780E
:10916000252BD6D1FFF7B4FBFFF7F4FBFEF756FF34
:10917000424B3E481B78AB714FF0000A802385F8C4
:1091800003A0EB71FFF790F9002840F0C9802B7A1B
:10919000404601332B72FEF74FFA0028BED1FEF78E
:1091A000CFF823E73C4B1A883C4B1B8812B21BB20A
:1091B0009A4240F384803A4B1B78002B00F0B48035
:1091C0004FF0000B224886F800B0FEF719FA334B37
:1091D00087F800B0A3F800B02F4BA3F800B00DF152
:1091E0000B00FFF79DFC9DF80B10102928BF1021E4
:1091F0004846FFF79FFC002840F08F809DF8103014
:109200001D4A82FB03026521120901FB12336433FC
:10921000039357E70320FEF7ABF8204B1A881E4B49
:109220001B8812B21BB29A426FDC194BA3F800A044
:10923000194BA3F800A0194BA3F800A03378272BF3
:1092400080D10023337064E794940200E58D02001E
:109250009C94020000800040D98D0200A49402007A
:109260000090004000B707001F23002020230020AB
:10927000552800201E230020CBF08D282128002017
:10928000CDCCCCCC8988888811420821B0940200CA
:10929000262800201C230020282800202428002025
:1092A00022280020364B1B881BB2022B7FF77AAF97
:1092B000039820B1334B800143F001039847324BB0
:1092C0002F49A3FB0B23314A4FEA9B08A2FB082836
:1092D000DB0800220A80C3EB03132D494FEA9808EC
:1092E000C8EB4818ABEB0303ABEB88080A80002BF4
:1092F0007FF4E8AE73E7FFF7F1F930E7FEF7BEF869
:1093000083E64046FEF70AF8B7E6FFF7E1FA404683
:10931000FEF784F987F800B0FBE6FEF7AFF86DE7DB
:109320005046FDF7FBFFF4E60DF10B00FFF7F8FBED
:109330009DF80B10012928BF01214846FFF7FAFBD1
:1093400078B99DF81020134BA3FB0213DB09C3EB84
:109350000323D31A104A01331370104A01231370E8
:109360002EE7FEF78BF8ECE7FEF788F8FBE5FEF753
:1093700085F837E6FEF782F821E6FEF77FF801E68A
:1093800024280020B094020089888888114208218E
:109390002828002081808080212800202228002089
:1093A00008B5074B044613B10021AFF30080054B0D
:1093B0001868836A03B19847204600F03FF800BF61
:1093C00000000000B894020070B50D4D0D4C641BF8
:1093D000A4100026A64209D10B4D0C4C00F030F829
:1093E000641BA4100026A64205D170BD55F8043BAD
:1093F00098470136EEE755F8043B98470136F2E707
:10940000A8230020A8230020A8230020AC230020AC
:109410000A44914200F1FF3300D1704710B511F8B2
:10942000014B03F8014F9142F9D110BD02440346AC
:10943000934200D1704703F8011BF9E7FEE700BF34
:10944000F8B500BFF8BC08BC9E467047F8B500BF31
:10945000F8BC08BC9E4670470608290C00000000B6
:1094600001010000010000000000000001060000F2
:10947000E7C2C3C4C5C6C7C80000000001000000A1
:10948000000000000102000096000300000102201D
:109490000000000000000306000000000080004003
:1094A00000040000009000400104000000000000E3
:1094B0000338FDD87047000048230020000000005A
:1094C0000C280020C82700204000000001000000F8
:0494D0000000000098
:0894D4006CDDFF7F01000000C8
:1094DC000090D003E7E7E7E7C2C2C2C2E7C2C3C449
:1094EC00C5C6C7C80805FF02130100003C000101F6
:1094FC000800000000010000001100000000000046
:10950C00000000000000000000000000000000004F
:10951C00000000000000000000000000000000003F
:10952C00000000000000000000000000000000002F
:10953C00000000000000000000000000000000001F
:10954C00000000000000000000000000000000000F
:10955C0000000000000000000000000000000000FF
:10956C0000000000000000000000000000000000EF
:10957C0000000000000000002572020001720200D1
:04000003200072BDAA
:00000001FF
